{
  "contractName": "Idea",
  "abi": [
    {
      "constant": true,
      "inputs": [
        {
          "name": "interfaceId",
          "type": "bytes4"
        }
      ],
      "name": "supportsInterface",
      "outputs": [
        {
          "name": "",
          "type": "bool"
        }
      ],
      "payable": false,
      "stateMutability": "view",
      "type": "function"
    },
    {
      "constant": true,
      "inputs": [
        {
          "name": "tokenId",
          "type": "uint256"
        }
      ],
      "name": "getApproved",
      "outputs": [
        {
          "name": "",
          "type": "address"
        }
      ],
      "payable": false,
      "stateMutability": "view",
      "type": "function"
    },
    {
      "constant": false,
      "inputs": [
        {
          "name": "to",
          "type": "address"
        },
        {
          "name": "tokenId",
          "type": "uint256"
        }
      ],
      "name": "approve",
      "outputs": [],
      "payable": false,
      "stateMutability": "nonpayable",
      "type": "function"
    },
    {
      "constant": false,
      "inputs": [
        {
          "name": "from",
          "type": "address"
        },
        {
          "name": "to",
          "type": "address"
        },
        {
          "name": "tokenId",
          "type": "uint256"
        }
      ],
      "name": "transferFrom",
      "outputs": [],
      "payable": false,
      "stateMutability": "nonpayable",
      "type": "function"
    },
    {
      "constant": false,
      "inputs": [
        {
          "name": "from",
          "type": "address"
        },
        {
          "name": "to",
          "type": "address"
        },
        {
          "name": "tokenId",
          "type": "uint256"
        }
      ],
      "name": "safeTransferFrom",
      "outputs": [],
      "payable": false,
      "stateMutability": "nonpayable",
      "type": "function"
    },
    {
      "constant": true,
      "inputs": [
        {
          "name": "tokenId",
          "type": "uint256"
        }
      ],
      "name": "ownerOf",
      "outputs": [
        {
          "name": "",
          "type": "address"
        }
      ],
      "payable": false,
      "stateMutability": "view",
      "type": "function"
    },
    {
      "constant": true,
      "inputs": [
        {
          "name": "owner",
          "type": "address"
        }
      ],
      "name": "balanceOf",
      "outputs": [
        {
          "name": "",
          "type": "uint256"
        }
      ],
      "payable": false,
      "stateMutability": "view",
      "type": "function"
    },
    {
      "constant": false,
      "inputs": [
        {
          "name": "to",
          "type": "address"
        },
        {
          "name": "approved",
          "type": "bool"
        }
      ],
      "name": "setApprovalForAll",
      "outputs": [],
      "payable": false,
      "stateMutability": "nonpayable",
      "type": "function"
    },
    {
      "constant": false,
      "inputs": [
        {
          "name": "from",
          "type": "address"
        },
        {
          "name": "to",
          "type": "address"
        },
        {
          "name": "tokenId",
          "type": "uint256"
        },
        {
          "name": "_data",
          "type": "bytes"
        }
      ],
      "name": "safeTransferFrom",
      "outputs": [],
      "payable": false,
      "stateMutability": "nonpayable",
      "type": "function"
    },
    {
      "constant": true,
      "inputs": [
        {
          "name": "owner",
          "type": "address"
        },
        {
          "name": "operator",
          "type": "address"
        }
      ],
      "name": "isApprovedForAll",
      "outputs": [
        {
          "name": "",
          "type": "bool"
        }
      ],
      "payable": false,
      "stateMutability": "view",
      "type": "function"
    },
    {
      "anonymous": false,
      "inputs": [
        {
          "indexed": true,
          "name": "from",
          "type": "address"
        },
        {
          "indexed": true,
          "name": "to",
          "type": "address"
        },
        {
          "indexed": true,
          "name": "tokenId",
          "type": "uint256"
        }
      ],
      "name": "Transfer",
      "type": "event"
    },
    {
      "anonymous": false,
      "inputs": [
        {
          "indexed": true,
          "name": "owner",
          "type": "address"
        },
        {
          "indexed": true,
          "name": "approved",
          "type": "address"
        },
        {
          "indexed": true,
          "name": "tokenId",
          "type": "uint256"
        }
      ],
      "name": "Approval",
      "type": "event"
    },
    {
      "anonymous": false,
      "inputs": [
        {
          "indexed": true,
          "name": "owner",
          "type": "address"
        },
        {
          "indexed": true,
          "name": "operator",
          "type": "address"
        },
        {
          "indexed": false,
          "name": "approved",
          "type": "bool"
        }
      ],
      "name": "ApprovalForAll",
      "type": "event"
    },
    {
      "constant": false,
      "inputs": [
        {
          "name": "_ideaTitle",
          "type": "string"
        },
        {
          "name": "_ideaType",
          "type": "string"
        },
        {
          "name": "_content",
          "type": "string"
        },
        {
          "name": "_category",
          "type": "string"
        },
        {
          "name": "_initialValue",
          "type": "uint256"
        },
        {
          "name": "_setForSale",
          "type": "bool"
        }
      ],
      "name": "addIdea",
      "outputs": [],
      "payable": false,
      "stateMutability": "nonpayable",
      "type": "function"
    },
    {
      "constant": false,
      "inputs": [],
      "name": "getMsg",
      "outputs": [
        {
          "name": "",
          "type": "address"
        }
      ],
      "payable": false,
      "stateMutability": "nonpayable",
      "type": "function"
    },
    {
      "constant": true,
      "inputs": [
        {
          "name": "_id",
          "type": "uint256"
        }
      ],
      "name": "getIdea",
      "outputs": [
        {
          "name": "title",
          "type": "string"
        },
        {
          "name": "ideaType",
          "type": "string"
        },
        {
          "name": "content",
          "type": "string"
        },
        {
          "name": "category",
          "type": "string"
        },
        {
          "name": "initialValue",
          "type": "uint256"
        },
        {
          "name": "actualValue",
          "type": "uint256"
        },
        {
          "name": "setForSale",
          "type": "bool"
        }
      ],
      "payable": false,
      "stateMutability": "view",
      "type": "function"
    },
    {
      "constant": true,
      "inputs": [],
      "name": "getIdeasLength",
      "outputs": [
        {
          "name": "",
          "type": "uint256"
        }
      ],
      "payable": false,
      "stateMutability": "view",
      "type": "function"
    }
  ],
  "bytecode": "0x60806040526000600555620000216301ffc9a760e01b6200003f60201b60201c565b620000396380ac58cd60e01b6200003f60201b60201c565b6200018c565b63ffffffff60e01b817bffffffffffffffffffffffffffffffffffffffffffffffffffffffff19161415620000ab576040517f08c379a0000000000000000000000000000000000000000000000000000000008152600401620000a29062000159565b60405180910390fd5b6001600080837bffffffffffffffffffffffffffffffffffffffffffffffffffffffff19167bffffffffffffffffffffffffffffffffffffffffffffffffffffffff1916815260200190815260200160002060006101000a81548160ff02191690831515021790555050565b600062000126601c836200017b565b91507f4552433136353a20696e76616c696420696e74657266616365206964000000006000830152602082019050919050565b60006020820190508181036000830152620001748162000117565b9050919050565b600082825260208201905092915050565b612775806200019c6000396000f3fe608060405234801561001057600080fd5b50600436106100ea5760003560e01c806370a082311161008c578063b5fdeb2311610066578063b5fdeb2314610271578063b88d4fde1461028f578063c684477d146102ab578063e985e9c5146102c9576100ea565b806370a0823114610209578063a22cb46514610239578063afa945cc14610255576100ea565b806323b872dd116100c857806323b872dd1461016b57806342842e0e1461018757806344de6b2f146101a35780636352211e146101d9576100ea565b806301ffc9a7146100ef578063081812fc1461011f578063095ea7b31461014f575b600080fd5b61010960048036036101049190810190611aa9565b6102f9565b6040516101169190612284565b60405180910390f35b61013960048036036101349190810190611be4565b610360565b604051610146919061221d565b60405180910390f35b61016960048036036101649190810190611a6d565b6103e5565b005b61018560048036036101809190810190611967565b610592565b005b6101a1600480360361019c9190810190611967565b6105eb565b005b6101bd60048036036101b89190810190611be4565b61060b565b6040516101d0979695949392919061229f565b60405180910390f35b6101f360048036036101ee9190810190611be4565b6109cf565b604051610200919061221d565b60405180910390f35b610223600480360361021e9190810190611902565b610a81565b604051610230919061250a565b60405180910390f35b610253600480360361024e9190810190611a31565b610b40565b005b61026f600480360361026a9190810190611afb565b610cac565b005b610279610e4a565b604051610286919061221d565b60405180910390f35b6102a960048036036102a491908101906119b6565b610e52565b005b6102b3610eae565b6040516102c0919061250a565b60405180910390f35b6102e360048036036102de919081019061192b565b610ebb565b6040516102f09190612284565b60405180910390f35b6000806000837bffffffffffffffffffffffffffffffffffffffffffffffffffffffff19167bffffffffffffffffffffffffffffffffffffffffffffffffffffffff1916815260200190815260200160002060009054906101000a900460ff169050919050565b600061036b82610f4f565b6103aa576040517f08c379a00000000000000000000000000000000000000000000000000000000081526004016103a19061246a565b60405180910390fd5b6002600083815260200190815260200160002060009054906101000a900473ffffffffffffffffffffffffffffffffffffffff169050919050565b60006103f0826109cf565b90508073ffffffffffffffffffffffffffffffffffffffff168373ffffffffffffffffffffffffffffffffffffffff161415610461576040517f08c379a0000000000000000000000000000000000000000000000000000000008152600401610458906124ca565b60405180910390fd5b8073ffffffffffffffffffffffffffffffffffffffff163373ffffffffffffffffffffffffffffffffffffffff1614806104a157506104a08133610ebb565b5b6104e0576040517f08c379a00000000000000000000000000000000000000000000000000000000081526004016104d7906123ea565b60405180910390fd5b826002600084815260200190815260200160002060006101000a81548173ffffffffffffffffffffffffffffffffffffffff021916908373ffffffffffffffffffffffffffffffffffffffff160217905550818373ffffffffffffffffffffffffffffffffffffffff168273ffffffffffffffffffffffffffffffffffffffff167f8c5be1e5ebec7d5bd14f71427d1e84f3dd0314c0f7b2291e5b200ac8c7c3b92560405160405180910390a4505050565b61059c3382610fc1565b6105db576040517f08c379a00000000000000000000000000000000000000000000000000000000081526004016105d2906124ea565b60405180910390fd5b6105e683838361109f565b505050565b61060683838360405180602001604052806000815250610e52565b505050565b606080606080600080600080600090505b6006805490508110156109c257886006828154811061063757fe5b90600052602060002090600802016000015414156109b5576006818154811061065c57fe5b90600052602060002090600802016001016006828154811061067a57fe5b90600052602060002090600802016002016006838154811061069857fe5b9060005260206000209060080201600301600684815481106106b657fe5b9060005260206000209060080201600401600685815481106106d457fe5b906000526020600020906008020160050154600686815481106106f357fe5b9060005260206000209060080201600601546006878154811061071257fe5b906000526020600020906008020160070160009054906101000a900460ff16868054600181600116156101000203166002900480601f0160208091040260200160405190810160405280929190818152602001828054600181600116156101000203166002900480156107c65780601f1061079b576101008083540402835291602001916107c6565b820191906000526020600020905b8154815290600101906020018083116107a957829003601f168201915b50505050509650858054600181600116156101000203166002900480601f0160208091040260200160405190810160405280929190818152602001828054600181600116156101000203166002900480156108625780601f1061083757610100808354040283529160200191610862565b820191906000526020600020905b81548152906001019060200180831161084557829003601f168201915b50505050509550848054600181600116156101000203166002900480601f0160208091040260200160405190810160405280929190818152602001828054600181600116156101000203166002900480156108fe5780601f106108d3576101008083540402835291602001916108fe565b820191906000526020600020905b8154815290600101906020018083116108e157829003601f168201915b50505050509450838054600181600116156101000203166002900480601f01602080910402602001604051908101604052809291908181526020018280546001816001161561010002031660029004801561099a5780601f1061096f5761010080835404028352916020019161099a565b820191906000526020600020905b81548152906001019060200180831161097d57829003601f168201915b505050505093509750975097509750975097509750506109c4565b808060010191505061061c565b505b919395979092949650565b6000806001600084815260200190815260200160002060009054906101000a900473ffffffffffffffffffffffffffffffffffffffff169050600073ffffffffffffffffffffffffffffffffffffffff168173ffffffffffffffffffffffffffffffffffffffff161415610a78576040517f08c379a0000000000000000000000000000000000000000000000000000000008152600401610a6f9061242a565b60405180910390fd5b80915050919050565b60008073ffffffffffffffffffffffffffffffffffffffff168273ffffffffffffffffffffffffffffffffffffffff161415610af2576040517f08c379a0000000000000000000000000000000000000000000000000000000008152600401610ae99061240a565b60405180910390fd5b610b39600360008473ffffffffffffffffffffffffffffffffffffffff1673ffffffffffffffffffffffffffffffffffffffff1681526020019081526020016000206112ce565b9050919050565b3373ffffffffffffffffffffffffffffffffffffffff168273ffffffffffffffffffffffffffffffffffffffff161415610baf576040517f08c379a0000000000000000000000000000000000000000000000000000000008152600401610ba69061238a565b60405180910390fd5b80600460003373ffffffffffffffffffffffffffffffffffffffff1673ffffffffffffffffffffffffffffffffffffffff16815260200190815260200160002060008473ffffffffffffffffffffffffffffffffffffffff1673ffffffffffffffffffffffffffffffffffffffff16815260200190815260200160002060006101000a81548160ff0219169083151502179055508173ffffffffffffffffffffffffffffffffffffffff163373ffffffffffffffffffffffffffffffffffffffff167f17307eab39ab6107e8899845ad3d59bd9653f200f220920489ca2b5937696c3183604051610ca09190612284565b60405180910390a35050565b610cb7600554610f4f565b15610cf7576040517f08c379a0000000000000000000000000000000000000000000000000000000008152600401610cee906124aa565b60405180910390fd5b610d03336005546112dc565b610d0b611705565b604051806101000160405280600554815260200188815260200187815260200186815260200185815260200184815260200160008152602001831515815250905060068190806001815401808255809150509060018203906000526020600020906008020160009091929091909150600082015181600001556020820151816001019080519060200190610da092919061174c565b506040820151816002019080519060200190610dbd92919061174c565b506060820151816003019080519060200190610dda92919061174c565b506080820151816004019080519060200190610df792919061174c565b5060a0820151816005015560c0820151816006015560e08201518160070160006101000a81548160ff02191690831515021790555050505060056000815480929190600101919050555050505050505050565b600033905090565b610e5d848484610592565b610e698484848461148e565b610ea8576040517f08c379a0000000000000000000000000000000000000000000000000000000008152600401610e9f9061232a565b60405180910390fd5b50505050565b6000600680549050905090565b6000600460008473ffffffffffffffffffffffffffffffffffffffff1673ffffffffffffffffffffffffffffffffffffffff16815260200190815260200160002060008373ffffffffffffffffffffffffffffffffffffffff1673ffffffffffffffffffffffffffffffffffffffff16815260200190815260200160002060009054906101000a900460ff16905092915050565b6000806001600084815260200190815260200160002060009054906101000a900473ffffffffffffffffffffffffffffffffffffffff169050600073ffffffffffffffffffffffffffffffffffffffff168173ffffffffffffffffffffffffffffffffffffffff161415915050919050565b6000610fcc82610f4f565b61100b576040517f08c379a0000000000000000000000000000000000000000000000000000000008152600401611002906123ca565b60405180910390fd5b6000611016836109cf565b90508073ffffffffffffffffffffffffffffffffffffffff168473ffffffffffffffffffffffffffffffffffffffff16148061108557508373ffffffffffffffffffffffffffffffffffffffff1661106d84610360565b73ffffffffffffffffffffffffffffffffffffffff16145b8061109657506110958185610ebb565b5b91505092915050565b8273ffffffffffffffffffffffffffffffffffffffff166110bf826109cf565b73ffffffffffffffffffffffffffffffffffffffff1614611115576040517f08c379a000000000000000000000000000000000000000000000000000000000815260040161110c9061248a565b60405180910390fd5b600073ffffffffffffffffffffffffffffffffffffffff168273ffffffffffffffffffffffffffffffffffffffff161415611185576040517f08c379a000000000000000000000000000000000000000000000000000000000815260040161117c9061236a565b60405180910390fd5b61118e816115a5565b6111d5600360008573ffffffffffffffffffffffffffffffffffffffff1673ffffffffffffffffffffffffffffffffffffffff168152602001908152602001600020611663565b61121c600360008473ffffffffffffffffffffffffffffffffffffffff1673ffffffffffffffffffffffffffffffffffffffff168152602001908152602001600020611686565b816001600083815260200190815260200160002060006101000a81548173ffffffffffffffffffffffffffffffffffffffff021916908373ffffffffffffffffffffffffffffffffffffffff160217905550808273ffffffffffffffffffffffffffffffffffffffff168473ffffffffffffffffffffffffffffffffffffffff167fddf252ad1be2c89b69c2b068fc378daa952ba7f163c4a11628f55a4df523b3ef60405160405180910390a4505050565b600081600001549050919050565b600073ffffffffffffffffffffffffffffffffffffffff168273ffffffffffffffffffffffffffffffffffffffff16141561134c576040517f08c379a00000000000000000000000000000000000000000000000000000000081526004016113439061244a565b60405180910390fd5b61135581610f4f565b15611395576040517f08c379a000000000000000000000000000000000000000000000000000000000815260040161138c9061234a565b60405180910390fd5b816001600083815260200190815260200160002060006101000a81548173ffffffffffffffffffffffffffffffffffffffff021916908373ffffffffffffffffffffffffffffffffffffffff16021790555061142e600360008473ffffffffffffffffffffffffffffffffffffffff1673ffffffffffffffffffffffffffffffffffffffff168152602001908152602001600020611686565b808273ffffffffffffffffffffffffffffffffffffffff16600073ffffffffffffffffffffffffffffffffffffffff167fddf252ad1be2c89b69c2b068fc378daa952ba7f163c4a11628f55a4df523b3ef60405160405180910390a45050565b60006114af8473ffffffffffffffffffffffffffffffffffffffff1661169c565b6114bc576001905061159d565b60008473ffffffffffffffffffffffffffffffffffffffff1663150b7a02338887876040518563ffffffff1660e01b81526004016114fd9493929190612238565b602060405180830381600087803b15801561151757600080fd5b505af115801561152b573d6000803e3d6000fd5b505050506040513d601f19601f8201168201806040525061154f9190810190611ad2565b905063150b7a0260e01b7bffffffffffffffffffffffffffffffffffffffffffffffffffffffff1916817bffffffffffffffffffffffffffffffffffffffffffffffffffffffff1916149150505b949350505050565b600073ffffffffffffffffffffffffffffffffffffffff166002600083815260200190815260200160002060009054906101000a900473ffffffffffffffffffffffffffffffffffffffff1673ffffffffffffffffffffffffffffffffffffffff16146116605760006002600083815260200190815260200160002060006101000a81548173ffffffffffffffffffffffffffffffffffffffff021916908373ffffffffffffffffffffffffffffffffffffffff1602179055505b50565b61167b600182600001546116af90919063ffffffff16565b816000018190555050565b6001816000016000828254019250508190555050565b600080823b905060008111915050919050565b6000828211156116f4576040517f08c379a00000000000000000000000000000000000000000000000000000000081526004016116eb906123aa565b60405180910390fd5b600082840390508091505092915050565b604051806101000160405280600081526020016060815260200160608152602001606081526020016060815260200160008152602001600081526020016000151581525090565b828054600181600116156101000203166002900490600052602060002090601f016020900481019282601f1061178d57805160ff19168380011785556117bb565b828001600101855582156117bb579182015b828111156117ba57825182559160200191906001019061179f565b5b5090506117c891906117cc565b5090565b6117ee91905b808211156117ea5760008160009055506001016117d2565b5090565b90565b600081359050611800816126df565b92915050565b600081359050611815816126f6565b92915050565b60008135905061182a8161270d565b92915050565b60008151905061183f8161270d565b92915050565b600082601f83011261185657600080fd5b813561186961186482612552565b612525565b9150808252602083016020830185838301111561188557600080fd5b61189083828461268c565b50505092915050565b600082601f8301126118aa57600080fd5b81356118bd6118b88261257e565b612525565b915080825260208301602083018583830111156118d957600080fd5b6118e483828461268c565b50505092915050565b6000813590506118fc81612724565b92915050565b60006020828403121561191457600080fd5b6000611922848285016117f1565b91505092915050565b6000806040838503121561193e57600080fd5b600061194c858286016117f1565b925050602061195d858286016117f1565b9150509250929050565b60008060006060848603121561197c57600080fd5b600061198a868287016117f1565b935050602061199b868287016117f1565b92505060406119ac868287016118ed565b9150509250925092565b600080600080608085870312156119cc57600080fd5b60006119da878288016117f1565b94505060206119eb878288016117f1565b93505060406119fc878288016118ed565b925050606085013567ffffffffffffffff811115611a1957600080fd5b611a2587828801611845565b91505092959194509250565b60008060408385031215611a4457600080fd5b6000611a52858286016117f1565b9250506020611a6385828601611806565b9150509250929050565b60008060408385031215611a8057600080fd5b6000611a8e858286016117f1565b9250506020611a9f858286016118ed565b9150509250929050565b600060208284031215611abb57600080fd5b6000611ac98482850161181b565b91505092915050565b600060208284031215611ae457600080fd5b6000611af284828501611830565b91505092915050565b60008060008060008060c08789031215611b1457600080fd5b600087013567ffffffffffffffff811115611b2e57600080fd5b611b3a89828a01611899565b965050602087013567ffffffffffffffff811115611b5757600080fd5b611b6389828a01611899565b955050604087013567ffffffffffffffff811115611b8057600080fd5b611b8c89828a01611899565b945050606087013567ffffffffffffffff811115611ba957600080fd5b611bb589828a01611899565b9350506080611bc689828a016118ed565b92505060a0611bd789828a01611806565b9150509295509295509295565b600060208284031215611bf657600080fd5b6000611c04848285016118ed565b91505092915050565b611c1681612656565b82525050565b611c25816125e2565b82525050565b611c34816125f4565b82525050565b6000611c45826125aa565b611c4f81856125c0565b9350611c5f81856020860161269b565b611c68816126ce565b840191505092915050565b6000611c7e826125b5565b611c8881856125d1565b9350611c9881856020860161269b565b611ca1816126ce565b840191505092915050565b6000611cb96032836125d1565b91507f4552433732313a207472616e7366657220746f206e6f6e20455243373231526560008301527f63656976657220696d706c656d656e74657200000000000000000000000000006020830152604082019050919050565b6000611d1f601c836125d1565b91507f4552433732313a20746f6b656e20616c7265616479206d696e746564000000006000830152602082019050919050565b6000611d5f6024836125d1565b91507f4552433732313a207472616e7366657220746f20746865207a65726f2061646460008301527f72657373000000000000000000000000000000000000000000000000000000006020830152604082019050919050565b6000611dc56019836125d1565b91507f4552433732313a20617070726f766520746f2063616c6c6572000000000000006000830152602082019050919050565b6000611e05601e836125d1565b91507f536166654d6174683a207375627472616374696f6e206f766572666c6f7700006000830152602082019050919050565b6000611e45602c836125d1565b91507f4552433732313a206f70657261746f7220717565727920666f72206e6f6e657860008301527f697374656e7420746f6b656e00000000000000000000000000000000000000006020830152604082019050919050565b6000611eab6038836125d1565b91507f4552433732313a20617070726f76652063616c6c6572206973206e6f74206f7760008301527f6e6572206e6f7220617070726f76656420666f7220616c6c00000000000000006020830152604082019050919050565b6000611f11602a836125d1565b91507f4552433732313a2062616c616e636520717565727920666f7220746865207a6560008301527f726f2061646472657373000000000000000000000000000000000000000000006020830152604082019050919050565b6000611f776029836125d1565b91507f4552433732313a206f776e657220717565727920666f72206e6f6e657869737460008301527f656e7420746f6b656e00000000000000000000000000000000000000000000006020830152604082019050919050565b6000611fdd6020836125d1565b91507f4552433732313a206d696e7420746f20746865207a65726f20616464726573736000830152602082019050919050565b600061201d602c836125d1565b91507f4552433732313a20617070726f76656420717565727920666f72206e6f6e657860008301527f697374656e7420746f6b656e00000000000000000000000000000000000000006020830152604082019050919050565b60006120836029836125d1565b91507f4552433732313a207472616e73666572206f6620746f6b656e2074686174206960008301527f73206e6f74206f776e00000000000000000000000000000000000000000000006020830152604082019050919050565b60006120e9602b836125d1565b91507f4944454120434f4e5452414354204552524f523a204964656120494420616c7260008301527f65616479206578697374730000000000000000000000000000000000000000006020830152604082019050919050565b600061214f6021836125d1565b91507f4552433732313a20617070726f76616c20746f2063757272656e74206f776e6560008301527f72000000000000000000000000000000000000000000000000000000000000006020830152604082019050919050565b60006121b56031836125d1565b91507f4552433732313a207472616e736665722063616c6c6572206973206e6f74206f60008301527f776e6572206e6f7220617070726f7665640000000000000000000000000000006020830152604082019050919050565b6122178161264c565b82525050565b60006020820190506122326000830184611c1c565b92915050565b600060808201905061224d6000830187611c0d565b61225a6020830186611c1c565b612267604083018561220e565b81810360608301526122798184611c3a565b905095945050505050565b60006020820190506122996000830184611c2b565b92915050565b600060e08201905081810360008301526122b9818a611c73565b905081810360208301526122cd8189611c73565b905081810360408301526122e18188611c73565b905081810360608301526122f58187611c73565b9050612304608083018661220e565b61231160a083018561220e565b61231e60c0830184611c2b565b98975050505050505050565b6000602082019050818103600083015261234381611cac565b9050919050565b6000602082019050818103600083015261236381611d12565b9050919050565b6000602082019050818103600083015261238381611d52565b9050919050565b600060208201905081810360008301526123a381611db8565b9050919050565b600060208201905081810360008301526123c381611df8565b9050919050565b600060208201905081810360008301526123e381611e38565b9050919050565b6000602082019050818103600083015261240381611e9e565b9050919050565b6000602082019050818103600083015261242381611f04565b9050919050565b6000602082019050818103600083015261244381611f6a565b9050919050565b6000602082019050818103600083015261246381611fd0565b9050919050565b6000602082019050818103600083015261248381612010565b9050919050565b600060208201905081810360008301526124a381612076565b9050919050565b600060208201905081810360008301526124c3816120dc565b9050919050565b600060208201905081810360008301526124e381612142565b9050919050565b60006020820190508181036000830152612503816121a8565b9050919050565b600060208201905061251f600083018461220e565b92915050565b6000604051905081810181811067ffffffffffffffff8211171561254857600080fd5b8060405250919050565b600067ffffffffffffffff82111561256957600080fd5b601f19601f8301169050602081019050919050565b600067ffffffffffffffff82111561259557600080fd5b601f19601f8301169050602081019050919050565b600081519050919050565b600081519050919050565b600082825260208201905092915050565b600082825260208201905092915050565b60006125ed8261262c565b9050919050565b60008115159050919050565b60007fffffffff0000000000000000000000000000000000000000000000000000000082169050919050565b600073ffffffffffffffffffffffffffffffffffffffff82169050919050565b6000819050919050565b600061266182612668565b9050919050565b60006126738261267a565b9050919050565b60006126858261262c565b9050919050565b82818337600083830152505050565b60005b838110156126b957808201518184015260208101905061269e565b838111156126c8576000848401525b50505050565b6000601f19601f8301169050919050565b6126e8816125e2565b81146126f357600080fd5b50565b6126ff816125f4565b811461270a57600080fd5b50565b61271681612600565b811461272157600080fd5b50565b61272d8161264c565b811461273857600080fd5b5056fea265627a7a7230582094b199caf02f8431dc4dfc52e01f0bec8f6ed46b8a3e71327eeab5b3a65dabf36c6578706572696d656e74616cf50037",
  "source": "pragma solidity ^0.5.8;\npragma experimental ABIEncoderV2; //to return ideatype\n\nimport \"/Users/omamah/Etherdea/Etherdea/node_modules/openzeppelin-solidity/contracts/token/ERC721/ERC721.sol\";\n\ncontract Idea is ERC721 {\n    struct idea{\n        uint id;\n        string ideaTitle;\n        string ideaType;\n        string content;\n        string category;\n        uint initialValue;\n        uint actualValue;\n        bool setForSale;\n        }\n\n    uint ideaIdCounter=0;\n    idea[] ideas;//the array that contain all of the ideas\n\n    function addIdea(string memory _ideaTitle, string memory _ideaType, string memory _content, string memory _category, uint _initialValue, bool _setForSale) public {\n        require(!_exists(ideaIdCounter),\"IDEA CONTRACT ERROR: Idea ID already exists\");\n        _mint(msg.sender, ideaIdCounter);\n        //the actualValue will be 0 at first\n        idea memory newIdea = idea(ideaIdCounter, _ideaTitle, _ideaType, _content,_category, _initialValue,0, _setForSale);\n        ideas.push(newIdea);\n        ideaIdCounter++;\n    }\n\n    function getMsg() public returns (address){\n        return msg.sender;\n    }\n\n\n\n\n    function getIdea(uint _id)public view returns( string memory title,string memory ideaType,\n        string memory content,\n        string memory category,\n        uint initialValue,\n        uint actualValue,\n        bool setForSale) {\n        for (uint i = 0; i<ideas.length; i++){\n            if(ideas[i].id == _id){\n            return (ideas[i].ideaTitle, ideas[i].ideaType, ideas[i].content, ideas[i].category, ideas[i].initialValue, ideas[i].actualValue, ideas[i].setForSale) ;\n            }\n          }\n        }\n\n    function getIdeasLength () public view returns (uint){\n        return uint(ideas.length);\n    }\n\n\n    // function increaseActualValue(uint _id) public {\n    //     ideas[_id].actualValue += uint(0.0001);\n    // }\n\n\n    // function setIdeaForSale(uint _ideaId,bool _setForsale) public{\n    //     ideas[_ideaId].setForSale = _setForsale;\n    // }\n\n    // function buyIdea (uint _ideaId) public payable returns(bool success) {\n    //     require(_exists(_ideaId), \"IDEAS CONTRACT ERROR: There is no idea with this id\");\n    //     if(msg.sender.send(ideas[_ideaId].initialValue)){\n    //         safeTransferFrom(ownerOf(_ideaId), msg.sender, _ideaId);\n    //         success = true;}\n    //     else\n    //         success = false;\n\n\n    // }\n\n  }\n\n\n\n\n\n\n\n",
  "sourcePath": "/Users/omamah/Etherdea/Etherdea/contracts/Idea.sol",
  "compiler": {
    "name": "solc",
    "version": "0.5.8+commit.23d335f2.Emscripten.clang"
  },
  "schemaVersion": "3.0.11",
  "updatedAt": "2019-07-21T10:31:32.617Z",
  "devdoc": {
    "methods": {
      "approve(address,uint256)": {
        "details": "Approves another address to transfer the given token ID The zero address indicates there is no approved address. There can only be one approved address per token at a given time. Can only be called by the token owner or an approved operator.",
        "params": {
          "to": "address to be approved for the given token ID",
          "tokenId": "uint256 ID of the token to be approved"
        }
      },
      "balanceOf(address)": {
        "details": "Gets the balance of the specified address.",
        "params": {
          "owner": "address to query the balance of"
        },
        "return": "uint256 representing the amount owned by the passed address"
      },
      "getApproved(uint256)": {
        "details": "Gets the approved address for a token ID, or zero if no address set Reverts if the token ID does not exist.",
        "params": {
          "tokenId": "uint256 ID of the token to query the approval of"
        },
        "return": "address currently approved for the given token ID"
      },
      "isApprovedForAll(address,address)": {
        "details": "Tells whether an operator is approved by a given owner.",
        "params": {
          "operator": "operator address which you want to query the approval of",
          "owner": "owner address which you want to query the approval of"
        },
        "return": "bool whether the given operator is approved by the given owner"
      },
      "ownerOf(uint256)": {
        "details": "Gets the owner of the specified token ID.",
        "params": {
          "tokenId": "uint256 ID of the token to query the owner of"
        },
        "return": "address currently marked as the owner of the given token ID"
      },
      "safeTransferFrom(address,address,uint256)": {
        "details": "Safely transfers the ownership of a given token ID to another address If the target address is a contract, it must implement `onERC721Received`, which is called upon a safe transfer, and return the magic value `bytes4(keccak256(\"onERC721Received(address,address,uint256,bytes)\"))`; otherwise, the transfer is reverted. Requires the msg.sender to be the owner, approved, or operator",
        "params": {
          "from": "current owner of the token",
          "to": "address to receive the ownership of the given token ID",
          "tokenId": "uint256 ID of the token to be transferred"
        }
      },
      "safeTransferFrom(address,address,uint256,bytes)": {
        "details": "Safely transfers the ownership of a given token ID to another address If the target address is a contract, it must implement `onERC721Received`, which is called upon a safe transfer, and return the magic value `bytes4(keccak256(\"onERC721Received(address,address,uint256,bytes)\"))`; otherwise, the transfer is reverted. Requires the msg.sender to be the owner, approved, or operator",
        "params": {
          "_data": "bytes data to send along with a safe transfer check",
          "from": "current owner of the token",
          "to": "address to receive the ownership of the given token ID",
          "tokenId": "uint256 ID of the token to be transferred"
        }
      },
      "setApprovalForAll(address,bool)": {
        "details": "Sets or unsets the approval of a given operator An operator is allowed to transfer all tokens of the sender on their behalf.",
        "params": {
          "approved": "representing the status of the approval to be set",
          "to": "operator address to set the approval"
        }
      },
      "supportsInterface(bytes4)": {
        "details": "See `IERC165.supportsInterface`.     * Time complexity O(1), guaranteed to always use less than 30 000 gas."
      },
      "transferFrom(address,address,uint256)": {
        "details": "Transfers the ownership of a given token ID to another address. Usage of this method is discouraged, use `safeTransferFrom` whenever possible. Requires the msg.sender to be the owner, approved, or operator.",
        "params": {
          "from": "current owner of the token",
          "to": "address to receive the ownership of the given token ID",
          "tokenId": "uint256 ID of the token to be transferred"
        }
      }
    }
  },
  "userdoc": {
    "methods": {}
  }
}