{
  "contractName": "Idea",
  "abi": [
    {
      "constant": true,
      "inputs": [
        {
          "name": "interfaceId",
          "type": "bytes4"
        }
      ],
      "name": "supportsInterface",
      "outputs": [
        {
          "name": "",
          "type": "bool"
        }
      ],
      "payable": false,
      "stateMutability": "view",
      "type": "function"
    },
    {
      "constant": true,
      "inputs": [
        {
          "name": "tokenId",
          "type": "uint256"
        }
      ],
      "name": "getApproved",
      "outputs": [
        {
          "name": "",
          "type": "address"
        }
      ],
      "payable": false,
      "stateMutability": "view",
      "type": "function"
    },
    {
      "constant": false,
      "inputs": [
        {
          "name": "to",
          "type": "address"
        },
        {
          "name": "tokenId",
          "type": "uint256"
        }
      ],
      "name": "approve",
      "outputs": [],
      "payable": false,
      "stateMutability": "nonpayable",
      "type": "function"
    },
    {
      "constant": false,
      "inputs": [
        {
          "name": "from",
          "type": "address"
        },
        {
          "name": "to",
          "type": "address"
        },
        {
          "name": "tokenId",
          "type": "uint256"
        }
      ],
      "name": "transferFrom",
      "outputs": [],
      "payable": false,
      "stateMutability": "nonpayable",
      "type": "function"
    },
    {
      "constant": false,
      "inputs": [
        {
          "name": "from",
          "type": "address"
        },
        {
          "name": "to",
          "type": "address"
        },
        {
          "name": "tokenId",
          "type": "uint256"
        }
      ],
      "name": "safeTransferFrom",
      "outputs": [],
      "payable": false,
      "stateMutability": "nonpayable",
      "type": "function"
    },
    {
      "constant": true,
      "inputs": [
        {
          "name": "tokenId",
          "type": "uint256"
        }
      ],
      "name": "ownerOf",
      "outputs": [
        {
          "name": "",
          "type": "address"
        }
      ],
      "payable": false,
      "stateMutability": "view",
      "type": "function"
    },
    {
      "constant": true,
      "inputs": [
        {
          "name": "owner",
          "type": "address"
        }
      ],
      "name": "balanceOf",
      "outputs": [
        {
          "name": "",
          "type": "uint256"
        }
      ],
      "payable": false,
      "stateMutability": "view",
      "type": "function"
    },
    {
      "constant": false,
      "inputs": [
        {
          "name": "to",
          "type": "address"
        },
        {
          "name": "approved",
          "type": "bool"
        }
      ],
      "name": "setApprovalForAll",
      "outputs": [],
      "payable": false,
      "stateMutability": "nonpayable",
      "type": "function"
    },
    {
      "constant": false,
      "inputs": [
        {
          "name": "from",
          "type": "address"
        },
        {
          "name": "to",
          "type": "address"
        },
        {
          "name": "tokenId",
          "type": "uint256"
        },
        {
          "name": "_data",
          "type": "bytes"
        }
      ],
      "name": "safeTransferFrom",
      "outputs": [],
      "payable": false,
      "stateMutability": "nonpayable",
      "type": "function"
    },
    {
      "constant": true,
      "inputs": [
        {
          "name": "owner",
          "type": "address"
        },
        {
          "name": "operator",
          "type": "address"
        }
      ],
      "name": "isApprovedForAll",
      "outputs": [
        {
          "name": "",
          "type": "bool"
        }
      ],
      "payable": false,
      "stateMutability": "view",
      "type": "function"
    },
    {
      "anonymous": false,
      "inputs": [
        {
          "indexed": true,
          "name": "from",
          "type": "address"
        },
        {
          "indexed": true,
          "name": "to",
          "type": "address"
        },
        {
          "indexed": true,
          "name": "tokenId",
          "type": "uint256"
        }
      ],
      "name": "Transfer",
      "type": "event"
    },
    {
      "anonymous": false,
      "inputs": [
        {
          "indexed": true,
          "name": "owner",
          "type": "address"
        },
        {
          "indexed": true,
          "name": "approved",
          "type": "address"
        },
        {
          "indexed": true,
          "name": "tokenId",
          "type": "uint256"
        }
      ],
      "name": "Approval",
      "type": "event"
    },
    {
      "anonymous": false,
      "inputs": [
        {
          "indexed": true,
          "name": "owner",
          "type": "address"
        },
        {
          "indexed": true,
          "name": "operator",
          "type": "address"
        },
        {
          "indexed": false,
          "name": "approved",
          "type": "bool"
        }
      ],
      "name": "ApprovalForAll",
      "type": "event"
    },
    {
      "constant": false,
      "inputs": [
        {
          "name": "_ideaTitle",
          "type": "string"
        },
        {
          "name": "_ideaType",
          "type": "string"
        },
        {
          "name": "_content",
          "type": "string"
        },
        {
          "name": "_category",
          "type": "string"
        },
        {
          "name": "_initialValue",
          "type": "uint256"
        },
        {
          "name": "_setForSale",
          "type": "bool"
        }
      ],
      "name": "addIdea",
      "outputs": [],
      "payable": false,
      "stateMutability": "nonpayable",
      "type": "function"
    },
    {
      "constant": true,
      "inputs": [
        {
          "name": "_id",
          "type": "uint256"
        }
      ],
      "name": "getIdea",
      "outputs": [
        {
          "name": "title",
          "type": "string"
        },
        {
          "name": "ideaType",
          "type": "string"
        },
        {
          "name": "content",
          "type": "string"
        },
        {
          "name": "category",
          "type": "string"
        },
        {
          "name": "initialValue",
          "type": "uint256"
        },
        {
          "name": "actualValue",
          "type": "uint256"
        },
        {
          "name": "setForSale",
          "type": "bool"
        }
      ],
      "payable": false,
      "stateMutability": "view",
      "type": "function"
    },
    {
      "constant": true,
      "inputs": [],
      "name": "getIdeas",
      "outputs": [
        {
          "components": [
            {
              "name": "id",
              "type": "uint256"
            },
            {
              "name": "ideaTitle",
              "type": "string"
            },
            {
              "name": "ideaType",
              "type": "string"
            },
            {
              "name": "content",
              "type": "string"
            },
            {
              "name": "category",
              "type": "string"
            },
            {
              "name": "initialValue",
              "type": "uint256"
            },
            {
              "name": "actualValue",
              "type": "uint256"
            },
            {
              "name": "setForSale",
              "type": "bool"
            }
          ],
          "name": "",
          "type": "tuple[]"
        }
      ],
      "payable": false,
      "stateMutability": "view",
      "type": "function"
    }
  ],
  "bytecode": "0x60806040526000600555620000216301ffc9a760e01b6200003f60201b60201c565b620000396380ac58cd60e01b6200003f60201b60201c565b6200018c565b63ffffffff60e01b817bffffffffffffffffffffffffffffffffffffffffffffffffffffffff19161415620000ab576040517f08c379a0000000000000000000000000000000000000000000000000000000008152600401620000a29062000159565b60405180910390fd5b6001600080837bffffffffffffffffffffffffffffffffffffffffffffffffffffffff19167bffffffffffffffffffffffffffffffffffffffffffffffffffffffff1916815260200190815260200160002060006101000a81548160ff02191690831515021790555050565b600062000126601c836200017b565b91507f4552433136353a20696e76616c696420696e74657266616365206964000000006000830152602082019050919050565b60006020820190508181036000830152620001748162000117565b9050919050565b600082825260208201905092915050565b612c61806200019c6000396000f3fe608060405234801561001057600080fd5b50600436106100cf5760003560e01c806344de6b2f1161008c578063a22cb46511610066578063a22cb4651461023c578063afa945cc14610258578063b88d4fde14610274578063e985e9c514610290576100cf565b806344de6b2f146101a65780636352211e146101dc57806370a082311461020c576100cf565b806301ffc9a7146100d45780630448584114610104578063081812fc14610122578063095ea7b31461015257806323b872dd1461016e57806342842e0e1461018a575b600080fd5b6100ee60048036036100e99190810190611d7c565b6102c0565b6040516100fb919061271e565b60405180910390f35b61010c610327565b60405161011991906126fc565b60405180910390f35b61013c60048036036101379190810190611eb7565b610648565b6040516101499190612695565b60405180910390f35b61016c60048036036101679190810190611d40565b6106cd565b005b61018860048036036101839190810190611c3a565b61087a565b005b6101a4600480360361019f9190810190611c3a565b6108d3565b005b6101c060048036036101bb9190810190611eb7565b6108f3565b6040516101d39796959493929190612739565b60405180910390f35b6101f660048036036101f19190810190611eb7565b610cb7565b6040516102039190612695565b60405180910390f35b61022660048036036102219190810190611bd5565b610d69565b60405161023391906129a4565b60405180910390f35b61025660048036036102519190810190611d04565b610e28565b005b610272600480360361026d9190810190611dce565b610f94565b005b61028e60048036036102899190810190611c89565b611132565b005b6102aa60048036036102a59190810190611bfe565b61118e565b6040516102b7919061271e565b60405180910390f35b6000806000837bffffffffffffffffffffffffffffffffffffffffffffffffffffffff19167bffffffffffffffffffffffffffffffffffffffffffffffffffffffff1916815260200190815260200160002060009054906101000a900460ff169050919050565b60606006805480602002602001604051908101604052809291908181526020016000905b8282101561063f57838290600052602060002090600802016040518061010001604052908160008201548152602001600182018054600181600116156101000203166002900480601f0160208091040260200160405190810160405280929190818152602001828054600181600116156101000203166002900480156104125780601f106103e757610100808354040283529160200191610412565b820191906000526020600020905b8154815290600101906020018083116103f557829003601f168201915b50505050508152602001600282018054600181600116156101000203166002900480601f0160208091040260200160405190810160405280929190818152602001828054600181600116156101000203166002900480156104b45780601f10610489576101008083540402835291602001916104b4565b820191906000526020600020905b81548152906001019060200180831161049757829003601f168201915b50505050508152602001600382018054600181600116156101000203166002900480601f0160208091040260200160405190810160405280929190818152602001828054600181600116156101000203166002900480156105565780601f1061052b57610100808354040283529160200191610556565b820191906000526020600020905b81548152906001019060200180831161053957829003601f168201915b50505050508152602001600482018054600181600116156101000203166002900480601f0160208091040260200160405190810160405280929190818152602001828054600181600116156101000203166002900480156105f85780601f106105cd576101008083540402835291602001916105f8565b820191906000526020600020905b8154815290600101906020018083116105db57829003601f168201915b5050505050815260200160058201548152602001600682015481526020016007820160009054906101000a900460ff1615151515815250508152602001906001019061034b565b50505050905090565b600061065382611222565b610692576040517f08c379a000000000000000000000000000000000000000000000000000000000815260040161068990612904565b60405180910390fd5b6002600083815260200190815260200160002060009054906101000a900473ffffffffffffffffffffffffffffffffffffffff169050919050565b60006106d882610cb7565b90508073ffffffffffffffffffffffffffffffffffffffff168373ffffffffffffffffffffffffffffffffffffffff161415610749576040517f08c379a000000000000000000000000000000000000000000000000000000000815260040161074090612964565b60405180910390fd5b8073ffffffffffffffffffffffffffffffffffffffff163373ffffffffffffffffffffffffffffffffffffffff1614806107895750610788813361118e565b5b6107c8576040517f08c379a00000000000000000000000000000000000000000000000000000000081526004016107bf90612884565b60405180910390fd5b826002600084815260200190815260200160002060006101000a81548173ffffffffffffffffffffffffffffffffffffffff021916908373ffffffffffffffffffffffffffffffffffffffff160217905550818373ffffffffffffffffffffffffffffffffffffffff168273ffffffffffffffffffffffffffffffffffffffff167f8c5be1e5ebec7d5bd14f71427d1e84f3dd0314c0f7b2291e5b200ac8c7c3b92560405160405180910390a4505050565b6108843382611294565b6108c3576040517f08c379a00000000000000000000000000000000000000000000000000000000081526004016108ba90612984565b60405180910390fd5b6108ce838383611372565b505050565b6108ee83838360405180602001604052806000815250611132565b505050565b606080606080600080600080600090505b600680549050811015610caa57886006828154811061091f57fe5b9060005260206000209060080201600001541415610c9d576006818154811061094457fe5b90600052602060002090600802016001016006828154811061096257fe5b90600052602060002090600802016002016006838154811061098057fe5b90600052602060002090600802016003016006848154811061099e57fe5b9060005260206000209060080201600401600685815481106109bc57fe5b906000526020600020906008020160050154600686815481106109db57fe5b906000526020600020906008020160060154600687815481106109fa57fe5b906000526020600020906008020160070160009054906101000a900460ff16868054600181600116156101000203166002900480601f016020809104026020016040519081016040528092919081815260200182805460018160011615610100020316600290048015610aae5780601f10610a8357610100808354040283529160200191610aae565b820191906000526020600020905b815481529060010190602001808311610a9157829003601f168201915b50505050509650858054600181600116156101000203166002900480601f016020809104026020016040519081016040528092919081815260200182805460018160011615610100020316600290048015610b4a5780601f10610b1f57610100808354040283529160200191610b4a565b820191906000526020600020905b815481529060010190602001808311610b2d57829003601f168201915b50505050509550848054600181600116156101000203166002900480601f016020809104026020016040519081016040528092919081815260200182805460018160011615610100020316600290048015610be65780601f10610bbb57610100808354040283529160200191610be6565b820191906000526020600020905b815481529060010190602001808311610bc957829003601f168201915b50505050509450838054600181600116156101000203166002900480601f016020809104026020016040519081016040528092919081815260200182805460018160011615610100020316600290048015610c825780601f10610c5757610100808354040283529160200191610c82565b820191906000526020600020905b815481529060010190602001808311610c6557829003601f168201915b50505050509350975097509750975097509750975050610cac565b8080600101915050610904565b505b919395979092949650565b6000806001600084815260200190815260200160002060009054906101000a900473ffffffffffffffffffffffffffffffffffffffff169050600073ffffffffffffffffffffffffffffffffffffffff168173ffffffffffffffffffffffffffffffffffffffff161415610d60576040517f08c379a0000000000000000000000000000000000000000000000000000000008152600401610d57906128c4565b60405180910390fd5b80915050919050565b60008073ffffffffffffffffffffffffffffffffffffffff168273ffffffffffffffffffffffffffffffffffffffff161415610dda576040517f08c379a0000000000000000000000000000000000000000000000000000000008152600401610dd1906128a4565b60405180910390fd5b610e21600360008473ffffffffffffffffffffffffffffffffffffffff1673ffffffffffffffffffffffffffffffffffffffff1681526020019081526020016000206115a1565b9050919050565b3373ffffffffffffffffffffffffffffffffffffffff168273ffffffffffffffffffffffffffffffffffffffff161415610e97576040517f08c379a0000000000000000000000000000000000000000000000000000000008152600401610e8e90612824565b60405180910390fd5b80600460003373ffffffffffffffffffffffffffffffffffffffff1673ffffffffffffffffffffffffffffffffffffffff16815260200190815260200160002060008473ffffffffffffffffffffffffffffffffffffffff1673ffffffffffffffffffffffffffffffffffffffff16815260200190815260200160002060006101000a81548160ff0219169083151502179055508173ffffffffffffffffffffffffffffffffffffffff163373ffffffffffffffffffffffffffffffffffffffff167f17307eab39ab6107e8899845ad3d59bd9653f200f220920489ca2b5937696c3183604051610f88919061271e565b60405180910390a35050565b610f9f600554611222565b15610fdf576040517f08c379a0000000000000000000000000000000000000000000000000000000008152600401610fd690612944565b60405180910390fd5b610feb336005546115af565b610ff36119d8565b604051806101000160405280600554815260200188815260200187815260200186815260200185815260200184815260200160008152602001831515815250905060068190806001815401808255809150509060018203906000526020600020906008020160009091929091909150600082015181600001556020820151816001019080519060200190611088929190611a1f565b5060408201518160020190805190602001906110a5929190611a1f565b5060608201518160030190805190602001906110c2929190611a1f565b5060808201518160040190805190602001906110df929190611a1f565b5060a0820151816005015560c0820151816006015560e08201518160070160006101000a81548160ff02191690831515021790555050505060056000815480929190600101919050555050505050505050565b61113d84848461087a565b61114984848484611761565b611188576040517f08c379a000000000000000000000000000000000000000000000000000000000815260040161117f906127c4565b60405180910390fd5b50505050565b6000600460008473ffffffffffffffffffffffffffffffffffffffff1673ffffffffffffffffffffffffffffffffffffffff16815260200190815260200160002060008373ffffffffffffffffffffffffffffffffffffffff1673ffffffffffffffffffffffffffffffffffffffff16815260200190815260200160002060009054906101000a900460ff16905092915050565b6000806001600084815260200190815260200160002060009054906101000a900473ffffffffffffffffffffffffffffffffffffffff169050600073ffffffffffffffffffffffffffffffffffffffff168173ffffffffffffffffffffffffffffffffffffffff161415915050919050565b600061129f82611222565b6112de576040517f08c379a00000000000000000000000000000000000000000000000000000000081526004016112d590612864565b60405180910390fd5b60006112e983610cb7565b90508073ffffffffffffffffffffffffffffffffffffffff168473ffffffffffffffffffffffffffffffffffffffff16148061135857508373ffffffffffffffffffffffffffffffffffffffff1661134084610648565b73ffffffffffffffffffffffffffffffffffffffff16145b806113695750611368818561118e565b5b91505092915050565b8273ffffffffffffffffffffffffffffffffffffffff1661139282610cb7565b73ffffffffffffffffffffffffffffffffffffffff16146113e8576040517f08c379a00000000000000000000000000000000000000000000000000000000081526004016113df90612924565b60405180910390fd5b600073ffffffffffffffffffffffffffffffffffffffff168273ffffffffffffffffffffffffffffffffffffffff161415611458576040517f08c379a000000000000000000000000000000000000000000000000000000000815260040161144f90612804565b60405180910390fd5b61146181611878565b6114a8600360008573ffffffffffffffffffffffffffffffffffffffff1673ffffffffffffffffffffffffffffffffffffffff168152602001908152602001600020611936565b6114ef600360008473ffffffffffffffffffffffffffffffffffffffff1673ffffffffffffffffffffffffffffffffffffffff168152602001908152602001600020611959565b816001600083815260200190815260200160002060006101000a81548173ffffffffffffffffffffffffffffffffffffffff021916908373ffffffffffffffffffffffffffffffffffffffff160217905550808273ffffffffffffffffffffffffffffffffffffffff168473ffffffffffffffffffffffffffffffffffffffff167fddf252ad1be2c89b69c2b068fc378daa952ba7f163c4a11628f55a4df523b3ef60405160405180910390a4505050565b600081600001549050919050565b600073ffffffffffffffffffffffffffffffffffffffff168273ffffffffffffffffffffffffffffffffffffffff16141561161f576040517f08c379a0000000000000000000000000000000000000000000000000000000008152600401611616906128e4565b60405180910390fd5b61162881611222565b15611668576040517f08c379a000000000000000000000000000000000000000000000000000000000815260040161165f906127e4565b60405180910390fd5b816001600083815260200190815260200160002060006101000a81548173ffffffffffffffffffffffffffffffffffffffff021916908373ffffffffffffffffffffffffffffffffffffffff160217905550611701600360008473ffffffffffffffffffffffffffffffffffffffff1673ffffffffffffffffffffffffffffffffffffffff168152602001908152602001600020611959565b808273ffffffffffffffffffffffffffffffffffffffff16600073ffffffffffffffffffffffffffffffffffffffff167fddf252ad1be2c89b69c2b068fc378daa952ba7f163c4a11628f55a4df523b3ef60405160405180910390a45050565b60006117828473ffffffffffffffffffffffffffffffffffffffff1661196f565b61178f5760019050611870565b60008473ffffffffffffffffffffffffffffffffffffffff1663150b7a02338887876040518563ffffffff1660e01b81526004016117d094939291906126b0565b602060405180830381600087803b1580156117ea57600080fd5b505af11580156117fe573d6000803e3d6000fd5b505050506040513d601f19601f820116820180604052506118229190810190611da5565b905063150b7a0260e01b7bffffffffffffffffffffffffffffffffffffffffffffffffffffffff1916817bffffffffffffffffffffffffffffffffffffffffffffffffffffffff1916149150505b949350505050565b600073ffffffffffffffffffffffffffffffffffffffff166002600083815260200190815260200160002060009054906101000a900473ffffffffffffffffffffffffffffffffffffffff1673ffffffffffffffffffffffffffffffffffffffff16146119335760006002600083815260200190815260200160002060006101000a81548173ffffffffffffffffffffffffffffffffffffffff021916908373ffffffffffffffffffffffffffffffffffffffff1602179055505b50565b61194e6001826000015461198290919063ffffffff16565b816000018190555050565b6001816000016000828254019250508190555050565b600080823b905060008111915050919050565b6000828211156119c7576040517f08c379a00000000000000000000000000000000000000000000000000000000081526004016119be90612844565b60405180910390fd5b600082840390508091505092915050565b604051806101000160405280600081526020016060815260200160608152602001606081526020016060815260200160008152602001600081526020016000151581525090565b828054600181600116156101000203166002900490600052602060002090601f016020900481019282601f10611a6057805160ff1916838001178555611a8e565b82800160010185558215611a8e579182015b82811115611a8d578251825591602001919060010190611a72565b5b509050611a9b9190611a9f565b5090565b611ac191905b80821115611abd576000816000905550600101611aa5565b5090565b90565b600081359050611ad381612bcb565b92915050565b600081359050611ae881612be2565b92915050565b600081359050611afd81612bf9565b92915050565b600081519050611b1281612bf9565b92915050565b600082601f830112611b2957600080fd5b8135611b3c611b37826129ec565b6129bf565b91508082526020830160208301858383011115611b5857600080fd5b611b63838284612b78565b50505092915050565b600082601f830112611b7d57600080fd5b8135611b90611b8b82612a18565b6129bf565b91508082526020830160208301858383011115611bac57600080fd5b611bb7838284612b78565b50505092915050565b600081359050611bcf81612c10565b92915050565b600060208284031215611be757600080fd5b6000611bf584828501611ac4565b91505092915050565b60008060408385031215611c1157600080fd5b6000611c1f85828601611ac4565b9250506020611c3085828601611ac4565b9150509250929050565b600080600060608486031215611c4f57600080fd5b6000611c5d86828701611ac4565b9350506020611c6e86828701611ac4565b9250506040611c7f86828701611bc0565b9150509250925092565b60008060008060808587031215611c9f57600080fd5b6000611cad87828801611ac4565b9450506020611cbe87828801611ac4565b9350506040611ccf87828801611bc0565b925050606085013567ffffffffffffffff811115611cec57600080fd5b611cf887828801611b18565b91505092959194509250565b60008060408385031215611d1757600080fd5b6000611d2585828601611ac4565b9250506020611d3685828601611ad9565b9150509250929050565b60008060408385031215611d5357600080fd5b6000611d6185828601611ac4565b9250506020611d7285828601611bc0565b9150509250929050565b600060208284031215611d8e57600080fd5b6000611d9c84828501611aee565b91505092915050565b600060208284031215611db757600080fd5b6000611dc584828501611b03565b91505092915050565b60008060008060008060c08789031215611de757600080fd5b600087013567ffffffffffffffff811115611e0157600080fd5b611e0d89828a01611b6c565b965050602087013567ffffffffffffffff811115611e2a57600080fd5b611e3689828a01611b6c565b955050604087013567ffffffffffffffff811115611e5357600080fd5b611e5f89828a01611b6c565b945050606087013567ffffffffffffffff811115611e7c57600080fd5b611e8889828a01611b6c565b9350506080611e9989828a01611bc0565b92505060a0611eaa89828a01611ad9565b9150509295509295509295565b600060208284031215611ec957600080fd5b6000611ed784828501611bc0565b91505092915050565b6000611eec83836125b2565b905092915050565b611efd81612b42565b82525050565b611f0c81612ace565b82525050565b6000611f1d82612a51565b611f278185612a8a565b935083602082028501611f3985612a44565b8060005b85811015611f755784840389528151611f568582611ee0565b9450611f6183612a7d565b925060208a01995050600181019050611f3d565b50829750879550505050505092915050565b611f9081612ae0565b82525050565b611f9f81612ae0565b82525050565b6000611fb082612a5c565b611fba8185612a9b565b9350611fca818560208601612b87565b611fd381612bba565b840191505092915050565b6000611fe982612a72565b611ff38185612abd565b9350612003818560208601612b87565b61200c81612bba565b840191505092915050565b600061202282612a67565b61202c8185612aac565b935061203c818560208601612b87565b61204581612bba565b840191505092915050565b600061205d603283612abd565b91507f4552433732313a207472616e7366657220746f206e6f6e20455243373231526560008301527f63656976657220696d706c656d656e74657200000000000000000000000000006020830152604082019050919050565b60006120c3601c83612abd565b91507f4552433732313a20746f6b656e20616c7265616479206d696e746564000000006000830152602082019050919050565b6000612103602483612abd565b91507f4552433732313a207472616e7366657220746f20746865207a65726f2061646460008301527f72657373000000000000000000000000000000000000000000000000000000006020830152604082019050919050565b6000612169601983612abd565b91507f4552433732313a20617070726f766520746f2063616c6c6572000000000000006000830152602082019050919050565b60006121a9601e83612abd565b91507f536166654d6174683a207375627472616374696f6e206f766572666c6f7700006000830152602082019050919050565b60006121e9602c83612abd565b91507f4552433732313a206f70657261746f7220717565727920666f72206e6f6e657860008301527f697374656e7420746f6b656e00000000000000000000000000000000000000006020830152604082019050919050565b600061224f603883612abd565b91507f4552433732313a20617070726f76652063616c6c6572206973206e6f74206f7760008301527f6e6572206e6f7220617070726f76656420666f7220616c6c00000000000000006020830152604082019050919050565b60006122b5602a83612abd565b91507f4552433732313a2062616c616e636520717565727920666f7220746865207a6560008301527f726f2061646472657373000000000000000000000000000000000000000000006020830152604082019050919050565b600061231b602983612abd565b91507f4552433732313a206f776e657220717565727920666f72206e6f6e657869737460008301527f656e7420746f6b656e00000000000000000000000000000000000000000000006020830152604082019050919050565b6000612381602083612abd565b91507f4552433732313a206d696e7420746f20746865207a65726f20616464726573736000830152602082019050919050565b60006123c1602c83612abd565b91507f4552433732313a20617070726f76656420717565727920666f72206e6f6e657860008301527f697374656e7420746f6b656e00000000000000000000000000000000000000006020830152604082019050919050565b6000612427602983612abd565b91507f4552433732313a207472616e73666572206f6620746f6b656e2074686174206960008301527f73206e6f74206f776e00000000000000000000000000000000000000000000006020830152604082019050919050565b600061248d602b83612abd565b91507f4944454120434f4e5452414354204552524f523a204964656120494420616c7260008301527f65616479206578697374730000000000000000000000000000000000000000006020830152604082019050919050565b60006124f3602183612abd565b91507f4552433732313a20617070726f76616c20746f2063757272656e74206f776e6560008301527f72000000000000000000000000000000000000000000000000000000000000006020830152604082019050919050565b6000612559603183612abd565b91507f4552433732313a207472616e736665722063616c6c6572206973206e6f74206f60008301527f776e6572206e6f7220617070726f7665640000000000000000000000000000006020830152604082019050919050565b6000610100830160008301516125cb6000860182612677565b50602083015184820360208601526125e38282612017565b915050604083015184820360408601526125fd8282612017565b915050606083015184820360608601526126178282612017565b915050608083015184820360808601526126318282612017565b91505060a083015161264660a0860182612677565b5060c083015161265960c0860182612677565b5060e083015161266c60e0860182611f87565b508091505092915050565b61268081612b38565b82525050565b61268f81612b38565b82525050565b60006020820190506126aa6000830184611f03565b92915050565b60006080820190506126c56000830187611ef4565b6126d26020830186611f03565b6126df6040830185612686565b81810360608301526126f18184611fa5565b905095945050505050565b600060208201905081810360008301526127168184611f12565b905092915050565b60006020820190506127336000830184611f96565b92915050565b600060e0820190508181036000830152612753818a611fde565b905081810360208301526127678189611fde565b9050818103604083015261277b8188611fde565b9050818103606083015261278f8187611fde565b905061279e6080830186612686565b6127ab60a0830185612686565b6127b860c0830184611f96565b98975050505050505050565b600060208201905081810360008301526127dd81612050565b9050919050565b600060208201905081810360008301526127fd816120b6565b9050919050565b6000602082019050818103600083015261281d816120f6565b9050919050565b6000602082019050818103600083015261283d8161215c565b9050919050565b6000602082019050818103600083015261285d8161219c565b9050919050565b6000602082019050818103600083015261287d816121dc565b9050919050565b6000602082019050818103600083015261289d81612242565b9050919050565b600060208201905081810360008301526128bd816122a8565b9050919050565b600060208201905081810360008301526128dd8161230e565b9050919050565b600060208201905081810360008301526128fd81612374565b9050919050565b6000602082019050818103600083015261291d816123b4565b9050919050565b6000602082019050818103600083015261293d8161241a565b9050919050565b6000602082019050818103600083015261295d81612480565b9050919050565b6000602082019050818103600083015261297d816124e6565b9050919050565b6000602082019050818103600083015261299d8161254c565b9050919050565b60006020820190506129b96000830184612686565b92915050565b6000604051905081810181811067ffffffffffffffff821117156129e257600080fd5b8060405250919050565b600067ffffffffffffffff821115612a0357600080fd5b601f19601f8301169050602081019050919050565b600067ffffffffffffffff821115612a2f57600080fd5b601f19601f8301169050602081019050919050565b6000602082019050919050565b600081519050919050565b600081519050919050565b600081519050919050565b600081519050919050565b6000602082019050919050565b600082825260208201905092915050565b600082825260208201905092915050565b600082825260208201905092915050565b600082825260208201905092915050565b6000612ad982612b18565b9050919050565b60008115159050919050565b60007fffffffff0000000000000000000000000000000000000000000000000000000082169050919050565b600073ffffffffffffffffffffffffffffffffffffffff82169050919050565b6000819050919050565b6000612b4d82612b54565b9050919050565b6000612b5f82612b66565b9050919050565b6000612b7182612b18565b9050919050565b82818337600083830152505050565b60005b83811015612ba5578082015181840152602081019050612b8a565b83811115612bb4576000848401525b50505050565b6000601f19601f8301169050919050565b612bd481612ace565b8114612bdf57600080fd5b50565b612beb81612ae0565b8114612bf657600080fd5b50565b612c0281612aec565b8114612c0d57600080fd5b50565b612c1981612b38565b8114612c2457600080fd5b5056fea265627a7a72305820940ff11cd96a370141bab56e25ba69800ccce4760e2a705f1b8c2cc5aa4f329b6c6578706572696d656e74616cf50037",
  "source": "pragma solidity ^0.5.8;\npragma experimental ABIEncoderV2; //to return ideatype\n\nimport \"/Users/omamah/Etherdea/Etherdea/node_modules/openzeppelin-solidity/contracts/token/ERC721/ERC721.sol\";\n\ncontract Idea is ERC721 {\n    struct idea{\n        uint id;\n        string ideaTitle;\n        string ideaType;\n        string content;\n        string category;\n        uint initialValue;\n        uint actualValue;\n        bool setForSale;\n        }\n\n    uint ideaIdCounter=0;\n    idea[] ideas;//the array that contain all of the ideas\n\n    function addIdea(string memory _ideaTitle, string memory _ideaType, string memory _content, string memory _category, uint _initialValue, bool _setForSale) public {\n        require(!_exists(ideaIdCounter),\"IDEA CONTRACT ERROR: Idea ID already exists\");\n        _mint(msg.sender, ideaIdCounter);\n        //the actualValue will be 0 at first\n        idea memory newIdea = idea(ideaIdCounter, _ideaTitle, _ideaType, _content,_category, _initialValue,0, _setForSale);\n        ideas.push(newIdea);\n        ideaIdCounter++;\n    }\n\n\n\n\n    function getIdea(uint _id)public view returns( string memory title,string memory ideaType,\n        string memory content,\n        string memory category,\n        uint initialValue,\n        uint actualValue,\n        bool setForSale) {\n        for (uint i = 0; i<ideas.length; i++){\n            if(ideas[i].id == _id){\n            return (ideas[i].ideaTitle, ideas[i].ideaType, ideas[i].content, ideas[i].category, ideas[i].initialValue, ideas[i].actualValue, ideas[i].setForSale) ;\n            }\n          }\n        }\n\n    function getIdeas () public view returns (idea[] memory){\n        return ideas;\n    }\n\n\n    // function increaseActualValue(uint _id) public {\n    //     ideas[_id].actualValue += uint(0.0001);\n    // }\n\n\n    // function setIdeaForSale(uint _ideaId,bool _setForsale) public{\n    //     ideas[_ideaId].setForSale = _setForsale;\n    // }\n\n    // function buyIdea (uint _ideaId) public payable returns(bool success) {\n    //     require(_exists(_ideaId), \"IDEAS CONTRACT ERROR: There is no idea with this id\");\n    //     if(msg.sender.send(ideas[_ideaId].initialValue)){\n    //         safeTransferFrom(ownerOf(_ideaId), msg.sender, _ideaId);\n    //         success = true;}\n    //     else\n    //         success = false;\n\n\n    // }\n\n  }\n\n\n\n\n\n\n\n",
  "sourcePath": "/Users/omamah/Etherdea/Etherdea/contracts/Idea.sol",
  "compiler": {
    "name": "solc",
    "version": "0.5.8+commit.23d335f2.Emscripten.clang"
  },
  "schemaVersion": "3.0.11",
  "updatedAt": "2019-07-18T12:00:29.705Z",
  "devdoc": {
    "methods": {
      "approve(address,uint256)": {
        "details": "Approves another address to transfer the given token ID The zero address indicates there is no approved address. There can only be one approved address per token at a given time. Can only be called by the token owner or an approved operator.",
        "params": {
          "to": "address to be approved for the given token ID",
          "tokenId": "uint256 ID of the token to be approved"
        }
      },
      "balanceOf(address)": {
        "details": "Gets the balance of the specified address.",
        "params": {
          "owner": "address to query the balance of"
        },
        "return": "uint256 representing the amount owned by the passed address"
      },
      "getApproved(uint256)": {
        "details": "Gets the approved address for a token ID, or zero if no address set Reverts if the token ID does not exist.",
        "params": {
          "tokenId": "uint256 ID of the token to query the approval of"
        },
        "return": "address currently approved for the given token ID"
      },
      "isApprovedForAll(address,address)": {
        "details": "Tells whether an operator is approved by a given owner.",
        "params": {
          "operator": "operator address which you want to query the approval of",
          "owner": "owner address which you want to query the approval of"
        },
        "return": "bool whether the given operator is approved by the given owner"
      },
      "ownerOf(uint256)": {
        "details": "Gets the owner of the specified token ID.",
        "params": {
          "tokenId": "uint256 ID of the token to query the owner of"
        },
        "return": "address currently marked as the owner of the given token ID"
      },
      "safeTransferFrom(address,address,uint256)": {
        "details": "Safely transfers the ownership of a given token ID to another address If the target address is a contract, it must implement `onERC721Received`, which is called upon a safe transfer, and return the magic value `bytes4(keccak256(\"onERC721Received(address,address,uint256,bytes)\"))`; otherwise, the transfer is reverted. Requires the msg.sender to be the owner, approved, or operator",
        "params": {
          "from": "current owner of the token",
          "to": "address to receive the ownership of the given token ID",
          "tokenId": "uint256 ID of the token to be transferred"
        }
      },
      "safeTransferFrom(address,address,uint256,bytes)": {
        "details": "Safely transfers the ownership of a given token ID to another address If the target address is a contract, it must implement `onERC721Received`, which is called upon a safe transfer, and return the magic value `bytes4(keccak256(\"onERC721Received(address,address,uint256,bytes)\"))`; otherwise, the transfer is reverted. Requires the msg.sender to be the owner, approved, or operator",
        "params": {
          "_data": "bytes data to send along with a safe transfer check",
          "from": "current owner of the token",
          "to": "address to receive the ownership of the given token ID",
          "tokenId": "uint256 ID of the token to be transferred"
        }
      },
      "setApprovalForAll(address,bool)": {
        "details": "Sets or unsets the approval of a given operator An operator is allowed to transfer all tokens of the sender on their behalf.",
        "params": {
          "approved": "representing the status of the approval to be set",
          "to": "operator address to set the approval"
        }
      },
      "supportsInterface(bytes4)": {
        "details": "See `IERC165.supportsInterface`.     * Time complexity O(1), guaranteed to always use less than 30 000 gas."
      },
      "transferFrom(address,address,uint256)": {
        "details": "Transfers the ownership of a given token ID to another address. Usage of this method is discouraged, use `safeTransferFrom` whenever possible. Requires the msg.sender to be the owner, approved, or operator.",
        "params": {
          "from": "current owner of the token",
          "to": "address to receive the ownership of the given token ID",
          "tokenId": "uint256 ID of the token to be transferred"
        }
      }
    }
  },
  "userdoc": {
    "methods": {}
  }
}