{
  "contractName": "Idea",
  "abi": [
    {
      "constant": true,
      "inputs": [
        {
          "name": "interfaceId",
          "type": "bytes4"
        }
      ],
      "name": "supportsInterface",
      "outputs": [
        {
          "name": "",
          "type": "bool"
        }
      ],
      "payable": false,
      "stateMutability": "view",
      "type": "function"
    },
    {
      "constant": true,
      "inputs": [
        {
          "name": "tokenId",
          "type": "uint256"
        }
      ],
      "name": "getApproved",
      "outputs": [
        {
          "name": "",
          "type": "address"
        }
      ],
      "payable": false,
      "stateMutability": "view",
      "type": "function"
    },
    {
      "constant": false,
      "inputs": [
        {
          "name": "to",
          "type": "address"
        },
        {
          "name": "tokenId",
          "type": "uint256"
        }
      ],
      "name": "approve",
      "outputs": [],
      "payable": false,
      "stateMutability": "nonpayable",
      "type": "function"
    },
    {
      "constant": false,
      "inputs": [
        {
          "name": "from",
          "type": "address"
        },
        {
          "name": "to",
          "type": "address"
        },
        {
          "name": "tokenId",
          "type": "uint256"
        }
      ],
      "name": "transferFrom",
      "outputs": [],
      "payable": false,
      "stateMutability": "nonpayable",
      "type": "function"
    },
    {
      "constant": false,
      "inputs": [
        {
          "name": "from",
          "type": "address"
        },
        {
          "name": "to",
          "type": "address"
        },
        {
          "name": "tokenId",
          "type": "uint256"
        }
      ],
      "name": "safeTransferFrom",
      "outputs": [],
      "payable": false,
      "stateMutability": "nonpayable",
      "type": "function"
    },
    {
      "constant": true,
      "inputs": [
        {
          "name": "tokenId",
          "type": "uint256"
        }
      ],
      "name": "ownerOf",
      "outputs": [
        {
          "name": "",
          "type": "address"
        }
      ],
      "payable": false,
      "stateMutability": "view",
      "type": "function"
    },
    {
      "constant": true,
      "inputs": [
        {
          "name": "owner",
          "type": "address"
        }
      ],
      "name": "balanceOf",
      "outputs": [
        {
          "name": "",
          "type": "uint256"
        }
      ],
      "payable": false,
      "stateMutability": "view",
      "type": "function"
    },
    {
      "constant": false,
      "inputs": [
        {
          "name": "to",
          "type": "address"
        },
        {
          "name": "approved",
          "type": "bool"
        }
      ],
      "name": "setApprovalForAll",
      "outputs": [],
      "payable": false,
      "stateMutability": "nonpayable",
      "type": "function"
    },
    {
      "constant": false,
      "inputs": [
        {
          "name": "from",
          "type": "address"
        },
        {
          "name": "to",
          "type": "address"
        },
        {
          "name": "tokenId",
          "type": "uint256"
        },
        {
          "name": "_data",
          "type": "bytes"
        }
      ],
      "name": "safeTransferFrom",
      "outputs": [],
      "payable": false,
      "stateMutability": "nonpayable",
      "type": "function"
    },
    {
      "constant": true,
      "inputs": [
        {
          "name": "owner",
          "type": "address"
        },
        {
          "name": "operator",
          "type": "address"
        }
      ],
      "name": "isApprovedForAll",
      "outputs": [
        {
          "name": "",
          "type": "bool"
        }
      ],
      "payable": false,
      "stateMutability": "view",
      "type": "function"
    },
    {
      "anonymous": false,
      "inputs": [
        {
          "indexed": true,
          "name": "from",
          "type": "address"
        },
        {
          "indexed": true,
          "name": "to",
          "type": "address"
        },
        {
          "indexed": true,
          "name": "tokenId",
          "type": "uint256"
        }
      ],
      "name": "Transfer",
      "type": "event"
    },
    {
      "anonymous": false,
      "inputs": [
        {
          "indexed": true,
          "name": "owner",
          "type": "address"
        },
        {
          "indexed": true,
          "name": "approved",
          "type": "address"
        },
        {
          "indexed": true,
          "name": "tokenId",
          "type": "uint256"
        }
      ],
      "name": "Approval",
      "type": "event"
    },
    {
      "anonymous": false,
      "inputs": [
        {
          "indexed": true,
          "name": "owner",
          "type": "address"
        },
        {
          "indexed": true,
          "name": "operator",
          "type": "address"
        },
        {
          "indexed": false,
          "name": "approved",
          "type": "bool"
        }
      ],
      "name": "ApprovalForAll",
      "type": "event"
    },
    {
      "constant": false,
      "inputs": [
        {
          "name": "_ideaTitle",
          "type": "string"
        },
        {
          "name": "_ideaType",
          "type": "string"
        },
        {
          "name": "_content",
          "type": "string"
        },
        {
          "name": "_category",
          "type": "string"
        },
        {
          "name": "_initialValue",
          "type": "uint256"
        },
        {
          "name": "_setForSale",
          "type": "bool"
        }
      ],
      "name": "addIdea",
      "outputs": [],
      "payable": false,
      "stateMutability": "nonpayable",
      "type": "function"
    },
    {
      "constant": true,
      "inputs": [
        {
          "name": "_id",
          "type": "uint256"
        }
      ],
      "name": "getIdea",
      "outputs": [
        {
          "name": "title",
          "type": "string"
        },
        {
          "name": "ideaType",
          "type": "string"
        },
        {
          "name": "content",
          "type": "string"
        },
        {
          "name": "category",
          "type": "string"
        },
        {
          "name": "initialValue",
          "type": "uint256"
        },
        {
          "name": "actualValue",
          "type": "uint256"
        },
        {
          "name": "setForSale",
          "type": "bool"
        }
      ],
      "payable": false,
      "stateMutability": "view",
      "type": "function"
    },
    {
      "constant": true,
      "inputs": [],
      "name": "getIdeasLength",
      "outputs": [
        {
          "name": "",
          "type": "uint256"
        }
      ],
      "payable": false,
      "stateMutability": "view",
      "type": "function"
    }
  ],
  "bytecode": "0x60806040526000600555620000216301ffc9a760e01b6200003f60201b60201c565b620000396380ac58cd60e01b6200003f60201b60201c565b6200018c565b63ffffffff60e01b817bffffffffffffffffffffffffffffffffffffffffffffffffffffffff19161415620000ab576040517f08c379a0000000000000000000000000000000000000000000000000000000008152600401620000a29062000159565b60405180910390fd5b6001600080837bffffffffffffffffffffffffffffffffffffffffffffffffffffffff19167bffffffffffffffffffffffffffffffffffffffffffffffffffffffff1916815260200190815260200160002060006101000a81548160ff02191690831515021790555050565b600062000126601c836200017b565b91507f4552433136353a20696e76616c696420696e74657266616365206964000000006000830152602082019050919050565b60006020820190508181036000830152620001748162000117565b9050919050565b600082825260208201905092915050565b612734806200019c6000396000f3fe608060405234801561001057600080fd5b50600436106100cf5760003560e01c80636352211e1161008c578063afa945cc11610066578063afa945cc1461023a578063b88d4fde14610256578063c684477d14610272578063e985e9c514610290576100cf565b80636352211e146101be57806370a08231146101ee578063a22cb4651461021e576100cf565b806301ffc9a7146100d4578063081812fc14610104578063095ea7b31461013457806323b872dd1461015057806342842e0e1461016c57806344de6b2f14610188575b600080fd5b6100ee60048036036100e99190810190611a68565b6102c0565b6040516100fb9190612243565b60405180910390f35b61011e60048036036101199190810190611ba3565b610327565b60405161012b91906121dc565b60405180910390f35b61014e60048036036101499190810190611a2c565b6103ac565b005b61016a60048036036101659190810190611926565b610559565b005b61018660048036036101819190810190611926565b6105b2565b005b6101a2600480360361019d9190810190611ba3565b6105d2565b6040516101b5979695949392919061225e565b60405180910390f35b6101d860048036036101d39190810190611ba3565b610996565b6040516101e591906121dc565b60405180910390f35b610208600480360361020391908101906118c1565b610a48565b60405161021591906124c9565b60405180910390f35b610238600480360361023391908101906119f0565b610b07565b005b610254600480360361024f9190810190611aba565b610c73565b005b610270600480360361026b9190810190611975565b610e11565b005b61027a610e6d565b60405161028791906124c9565b60405180910390f35b6102aa60048036036102a591908101906118ea565b610e7a565b6040516102b79190612243565b60405180910390f35b6000806000837bffffffffffffffffffffffffffffffffffffffffffffffffffffffff19167bffffffffffffffffffffffffffffffffffffffffffffffffffffffff1916815260200190815260200160002060009054906101000a900460ff169050919050565b600061033282610f0e565b610371576040517f08c379a000000000000000000000000000000000000000000000000000000000815260040161036890612429565b60405180910390fd5b6002600083815260200190815260200160002060009054906101000a900473ffffffffffffffffffffffffffffffffffffffff169050919050565b60006103b782610996565b90508073ffffffffffffffffffffffffffffffffffffffff168373ffffffffffffffffffffffffffffffffffffffff161415610428576040517f08c379a000000000000000000000000000000000000000000000000000000000815260040161041f90612489565b60405180910390fd5b8073ffffffffffffffffffffffffffffffffffffffff163373ffffffffffffffffffffffffffffffffffffffff16148061046857506104678133610e7a565b5b6104a7576040517f08c379a000000000000000000000000000000000000000000000000000000000815260040161049e906123a9565b60405180910390fd5b826002600084815260200190815260200160002060006101000a81548173ffffffffffffffffffffffffffffffffffffffff021916908373ffffffffffffffffffffffffffffffffffffffff160217905550818373ffffffffffffffffffffffffffffffffffffffff168273ffffffffffffffffffffffffffffffffffffffff167f8c5be1e5ebec7d5bd14f71427d1e84f3dd0314c0f7b2291e5b200ac8c7c3b92560405160405180910390a4505050565b6105633382610f80565b6105a2576040517f08c379a0000000000000000000000000000000000000000000000000000000008152600401610599906124a9565b60405180910390fd5b6105ad83838361105e565b505050565b6105cd83838360405180602001604052806000815250610e11565b505050565b606080606080600080600080600090505b6006805490508110156109895788600682815481106105fe57fe5b906000526020600020906008020160000154141561097c576006818154811061062357fe5b90600052602060002090600802016001016006828154811061064157fe5b90600052602060002090600802016002016006838154811061065f57fe5b90600052602060002090600802016003016006848154811061067d57fe5b90600052602060002090600802016004016006858154811061069b57fe5b906000526020600020906008020160050154600686815481106106ba57fe5b906000526020600020906008020160060154600687815481106106d957fe5b906000526020600020906008020160070160009054906101000a900460ff16868054600181600116156101000203166002900480601f01602080910402602001604051908101604052809291908181526020018280546001816001161561010002031660029004801561078d5780601f106107625761010080835404028352916020019161078d565b820191906000526020600020905b81548152906001019060200180831161077057829003601f168201915b50505050509650858054600181600116156101000203166002900480601f0160208091040260200160405190810160405280929190818152602001828054600181600116156101000203166002900480156108295780601f106107fe57610100808354040283529160200191610829565b820191906000526020600020905b81548152906001019060200180831161080c57829003601f168201915b50505050509550848054600181600116156101000203166002900480601f0160208091040260200160405190810160405280929190818152602001828054600181600116156101000203166002900480156108c55780601f1061089a576101008083540402835291602001916108c5565b820191906000526020600020905b8154815290600101906020018083116108a857829003601f168201915b50505050509450838054600181600116156101000203166002900480601f0160208091040260200160405190810160405280929190818152602001828054600181600116156101000203166002900480156109615780601f1061093657610100808354040283529160200191610961565b820191906000526020600020905b81548152906001019060200180831161094457829003601f168201915b5050505050935097509750975097509750975097505061098b565b80806001019150506105e3565b505b919395979092949650565b6000806001600084815260200190815260200160002060009054906101000a900473ffffffffffffffffffffffffffffffffffffffff169050600073ffffffffffffffffffffffffffffffffffffffff168173ffffffffffffffffffffffffffffffffffffffff161415610a3f576040517f08c379a0000000000000000000000000000000000000000000000000000000008152600401610a36906123e9565b60405180910390fd5b80915050919050565b60008073ffffffffffffffffffffffffffffffffffffffff168273ffffffffffffffffffffffffffffffffffffffff161415610ab9576040517f08c379a0000000000000000000000000000000000000000000000000000000008152600401610ab0906123c9565b60405180910390fd5b610b00600360008473ffffffffffffffffffffffffffffffffffffffff1673ffffffffffffffffffffffffffffffffffffffff16815260200190815260200160002061128d565b9050919050565b3373ffffffffffffffffffffffffffffffffffffffff168273ffffffffffffffffffffffffffffffffffffffff161415610b76576040517f08c379a0000000000000000000000000000000000000000000000000000000008152600401610b6d90612349565b60405180910390fd5b80600460003373ffffffffffffffffffffffffffffffffffffffff1673ffffffffffffffffffffffffffffffffffffffff16815260200190815260200160002060008473ffffffffffffffffffffffffffffffffffffffff1673ffffffffffffffffffffffffffffffffffffffff16815260200190815260200160002060006101000a81548160ff0219169083151502179055508173ffffffffffffffffffffffffffffffffffffffff163373ffffffffffffffffffffffffffffffffffffffff167f17307eab39ab6107e8899845ad3d59bd9653f200f220920489ca2b5937696c3183604051610c679190612243565b60405180910390a35050565b610c7e600554610f0e565b15610cbe576040517f08c379a0000000000000000000000000000000000000000000000000000000008152600401610cb590612469565b60405180910390fd5b610cca3360055461129b565b610cd26116c4565b604051806101000160405280600554815260200188815260200187815260200186815260200185815260200184815260200160008152602001831515815250905060068190806001815401808255809150509060018203906000526020600020906008020160009091929091909150600082015181600001556020820151816001019080519060200190610d6792919061170b565b506040820151816002019080519060200190610d8492919061170b565b506060820151816003019080519060200190610da192919061170b565b506080820151816004019080519060200190610dbe92919061170b565b5060a0820151816005015560c0820151816006015560e08201518160070160006101000a81548160ff02191690831515021790555050505060056000815480929190600101919050555050505050505050565b610e1c848484610559565b610e288484848461144d565b610e67576040517f08c379a0000000000000000000000000000000000000000000000000000000008152600401610e5e906122e9565b60405180910390fd5b50505050565b6000600680549050905090565b6000600460008473ffffffffffffffffffffffffffffffffffffffff1673ffffffffffffffffffffffffffffffffffffffff16815260200190815260200160002060008373ffffffffffffffffffffffffffffffffffffffff1673ffffffffffffffffffffffffffffffffffffffff16815260200190815260200160002060009054906101000a900460ff16905092915050565b6000806001600084815260200190815260200160002060009054906101000a900473ffffffffffffffffffffffffffffffffffffffff169050600073ffffffffffffffffffffffffffffffffffffffff168173ffffffffffffffffffffffffffffffffffffffff161415915050919050565b6000610f8b82610f0e565b610fca576040517f08c379a0000000000000000000000000000000000000000000000000000000008152600401610fc190612389565b60405180910390fd5b6000610fd583610996565b90508073ffffffffffffffffffffffffffffffffffffffff168473ffffffffffffffffffffffffffffffffffffffff16148061104457508373ffffffffffffffffffffffffffffffffffffffff1661102c84610327565b73ffffffffffffffffffffffffffffffffffffffff16145b8061105557506110548185610e7a565b5b91505092915050565b8273ffffffffffffffffffffffffffffffffffffffff1661107e82610996565b73ffffffffffffffffffffffffffffffffffffffff16146110d4576040517f08c379a00000000000000000000000000000000000000000000000000000000081526004016110cb90612449565b60405180910390fd5b600073ffffffffffffffffffffffffffffffffffffffff168273ffffffffffffffffffffffffffffffffffffffff161415611144576040517f08c379a000000000000000000000000000000000000000000000000000000000815260040161113b90612329565b60405180910390fd5b61114d81611564565b611194600360008573ffffffffffffffffffffffffffffffffffffffff1673ffffffffffffffffffffffffffffffffffffffff168152602001908152602001600020611622565b6111db600360008473ffffffffffffffffffffffffffffffffffffffff1673ffffffffffffffffffffffffffffffffffffffff168152602001908152602001600020611645565b816001600083815260200190815260200160002060006101000a81548173ffffffffffffffffffffffffffffffffffffffff021916908373ffffffffffffffffffffffffffffffffffffffff160217905550808273ffffffffffffffffffffffffffffffffffffffff168473ffffffffffffffffffffffffffffffffffffffff167fddf252ad1be2c89b69c2b068fc378daa952ba7f163c4a11628f55a4df523b3ef60405160405180910390a4505050565b600081600001549050919050565b600073ffffffffffffffffffffffffffffffffffffffff168273ffffffffffffffffffffffffffffffffffffffff16141561130b576040517f08c379a000000000000000000000000000000000000000000000000000000000815260040161130290612409565b60405180910390fd5b61131481610f0e565b15611354576040517f08c379a000000000000000000000000000000000000000000000000000000000815260040161134b90612309565b60405180910390fd5b816001600083815260200190815260200160002060006101000a81548173ffffffffffffffffffffffffffffffffffffffff021916908373ffffffffffffffffffffffffffffffffffffffff1602179055506113ed600360008473ffffffffffffffffffffffffffffffffffffffff1673ffffffffffffffffffffffffffffffffffffffff168152602001908152602001600020611645565b808273ffffffffffffffffffffffffffffffffffffffff16600073ffffffffffffffffffffffffffffffffffffffff167fddf252ad1be2c89b69c2b068fc378daa952ba7f163c4a11628f55a4df523b3ef60405160405180910390a45050565b600061146e8473ffffffffffffffffffffffffffffffffffffffff1661165b565b61147b576001905061155c565b60008473ffffffffffffffffffffffffffffffffffffffff1663150b7a02338887876040518563ffffffff1660e01b81526004016114bc94939291906121f7565b602060405180830381600087803b1580156114d657600080fd5b505af11580156114ea573d6000803e3d6000fd5b505050506040513d601f19601f8201168201806040525061150e9190810190611a91565b905063150b7a0260e01b7bffffffffffffffffffffffffffffffffffffffffffffffffffffffff1916817bffffffffffffffffffffffffffffffffffffffffffffffffffffffff1916149150505b949350505050565b600073ffffffffffffffffffffffffffffffffffffffff166002600083815260200190815260200160002060009054906101000a900473ffffffffffffffffffffffffffffffffffffffff1673ffffffffffffffffffffffffffffffffffffffff161461161f5760006002600083815260200190815260200160002060006101000a81548173ffffffffffffffffffffffffffffffffffffffff021916908373ffffffffffffffffffffffffffffffffffffffff1602179055505b50565b61163a6001826000015461166e90919063ffffffff16565b816000018190555050565b6001816000016000828254019250508190555050565b600080823b905060008111915050919050565b6000828211156116b3576040517f08c379a00000000000000000000000000000000000000000000000000000000081526004016116aa90612369565b60405180910390fd5b600082840390508091505092915050565b604051806101000160405280600081526020016060815260200160608152602001606081526020016060815260200160008152602001600081526020016000151581525090565b828054600181600116156101000203166002900490600052602060002090601f016020900481019282601f1061174c57805160ff191683800117855561177a565b8280016001018555821561177a579182015b8281111561177957825182559160200191906001019061175e565b5b509050611787919061178b565b5090565b6117ad91905b808211156117a9576000816000905550600101611791565b5090565b90565b6000813590506117bf8161269e565b92915050565b6000813590506117d4816126b5565b92915050565b6000813590506117e9816126cc565b92915050565b6000815190506117fe816126cc565b92915050565b600082601f83011261181557600080fd5b813561182861182382612511565b6124e4565b9150808252602083016020830185838301111561184457600080fd5b61184f83828461264b565b50505092915050565b600082601f83011261186957600080fd5b813561187c6118778261253d565b6124e4565b9150808252602083016020830185838301111561189857600080fd5b6118a383828461264b565b50505092915050565b6000813590506118bb816126e3565b92915050565b6000602082840312156118d357600080fd5b60006118e1848285016117b0565b91505092915050565b600080604083850312156118fd57600080fd5b600061190b858286016117b0565b925050602061191c858286016117b0565b9150509250929050565b60008060006060848603121561193b57600080fd5b6000611949868287016117b0565b935050602061195a868287016117b0565b925050604061196b868287016118ac565b9150509250925092565b6000806000806080858703121561198b57600080fd5b6000611999878288016117b0565b94505060206119aa878288016117b0565b93505060406119bb878288016118ac565b925050606085013567ffffffffffffffff8111156119d857600080fd5b6119e487828801611804565b91505092959194509250565b60008060408385031215611a0357600080fd5b6000611a11858286016117b0565b9250506020611a22858286016117c5565b9150509250929050565b60008060408385031215611a3f57600080fd5b6000611a4d858286016117b0565b9250506020611a5e858286016118ac565b9150509250929050565b600060208284031215611a7a57600080fd5b6000611a88848285016117da565b91505092915050565b600060208284031215611aa357600080fd5b6000611ab1848285016117ef565b91505092915050565b60008060008060008060c08789031215611ad357600080fd5b600087013567ffffffffffffffff811115611aed57600080fd5b611af989828a01611858565b965050602087013567ffffffffffffffff811115611b1657600080fd5b611b2289828a01611858565b955050604087013567ffffffffffffffff811115611b3f57600080fd5b611b4b89828a01611858565b945050606087013567ffffffffffffffff811115611b6857600080fd5b611b7489828a01611858565b9350506080611b8589828a016118ac565b92505060a0611b9689828a016117c5565b9150509295509295509295565b600060208284031215611bb557600080fd5b6000611bc3848285016118ac565b91505092915050565b611bd581612615565b82525050565b611be4816125a1565b82525050565b611bf3816125b3565b82525050565b6000611c0482612569565b611c0e818561257f565b9350611c1e81856020860161265a565b611c278161268d565b840191505092915050565b6000611c3d82612574565b611c478185612590565b9350611c5781856020860161265a565b611c608161268d565b840191505092915050565b6000611c78603283612590565b91507f4552433732313a207472616e7366657220746f206e6f6e20455243373231526560008301527f63656976657220696d706c656d656e74657200000000000000000000000000006020830152604082019050919050565b6000611cde601c83612590565b91507f4552433732313a20746f6b656e20616c7265616479206d696e746564000000006000830152602082019050919050565b6000611d1e602483612590565b91507f4552433732313a207472616e7366657220746f20746865207a65726f2061646460008301527f72657373000000000000000000000000000000000000000000000000000000006020830152604082019050919050565b6000611d84601983612590565b91507f4552433732313a20617070726f766520746f2063616c6c6572000000000000006000830152602082019050919050565b6000611dc4601e83612590565b91507f536166654d6174683a207375627472616374696f6e206f766572666c6f7700006000830152602082019050919050565b6000611e04602c83612590565b91507f4552433732313a206f70657261746f7220717565727920666f72206e6f6e657860008301527f697374656e7420746f6b656e00000000000000000000000000000000000000006020830152604082019050919050565b6000611e6a603883612590565b91507f4552433732313a20617070726f76652063616c6c6572206973206e6f74206f7760008301527f6e6572206e6f7220617070726f76656420666f7220616c6c00000000000000006020830152604082019050919050565b6000611ed0602a83612590565b91507f4552433732313a2062616c616e636520717565727920666f7220746865207a6560008301527f726f2061646472657373000000000000000000000000000000000000000000006020830152604082019050919050565b6000611f36602983612590565b91507f4552433732313a206f776e657220717565727920666f72206e6f6e657869737460008301527f656e7420746f6b656e00000000000000000000000000000000000000000000006020830152604082019050919050565b6000611f9c602083612590565b91507f4552433732313a206d696e7420746f20746865207a65726f20616464726573736000830152602082019050919050565b6000611fdc602c83612590565b91507f4552433732313a20617070726f76656420717565727920666f72206e6f6e657860008301527f697374656e7420746f6b656e00000000000000000000000000000000000000006020830152604082019050919050565b6000612042602983612590565b91507f4552433732313a207472616e73666572206f6620746f6b656e2074686174206960008301527f73206e6f74206f776e00000000000000000000000000000000000000000000006020830152604082019050919050565b60006120a8602b83612590565b91507f4944454120434f4e5452414354204552524f523a204964656120494420616c7260008301527f65616479206578697374730000000000000000000000000000000000000000006020830152604082019050919050565b600061210e602183612590565b91507f4552433732313a20617070726f76616c20746f2063757272656e74206f776e6560008301527f72000000000000000000000000000000000000000000000000000000000000006020830152604082019050919050565b6000612174603183612590565b91507f4552433732313a207472616e736665722063616c6c6572206973206e6f74206f60008301527f776e6572206e6f7220617070726f7665640000000000000000000000000000006020830152604082019050919050565b6121d68161260b565b82525050565b60006020820190506121f16000830184611bdb565b92915050565b600060808201905061220c6000830187611bcc565b6122196020830186611bdb565b61222660408301856121cd565b81810360608301526122388184611bf9565b905095945050505050565b60006020820190506122586000830184611bea565b92915050565b600060e0820190508181036000830152612278818a611c32565b9050818103602083015261228c8189611c32565b905081810360408301526122a08188611c32565b905081810360608301526122b48187611c32565b90506122c360808301866121cd565b6122d060a08301856121cd565b6122dd60c0830184611bea565b98975050505050505050565b6000602082019050818103600083015261230281611c6b565b9050919050565b6000602082019050818103600083015261232281611cd1565b9050919050565b6000602082019050818103600083015261234281611d11565b9050919050565b6000602082019050818103600083015261236281611d77565b9050919050565b6000602082019050818103600083015261238281611db7565b9050919050565b600060208201905081810360008301526123a281611df7565b9050919050565b600060208201905081810360008301526123c281611e5d565b9050919050565b600060208201905081810360008301526123e281611ec3565b9050919050565b6000602082019050818103600083015261240281611f29565b9050919050565b6000602082019050818103600083015261242281611f8f565b9050919050565b6000602082019050818103600083015261244281611fcf565b9050919050565b6000602082019050818103600083015261246281612035565b9050919050565b600060208201905081810360008301526124828161209b565b9050919050565b600060208201905081810360008301526124a281612101565b9050919050565b600060208201905081810360008301526124c281612167565b9050919050565b60006020820190506124de60008301846121cd565b92915050565b6000604051905081810181811067ffffffffffffffff8211171561250757600080fd5b8060405250919050565b600067ffffffffffffffff82111561252857600080fd5b601f19601f8301169050602081019050919050565b600067ffffffffffffffff82111561255457600080fd5b601f19601f8301169050602081019050919050565b600081519050919050565b600081519050919050565b600082825260208201905092915050565b600082825260208201905092915050565b60006125ac826125eb565b9050919050565b60008115159050919050565b60007fffffffff0000000000000000000000000000000000000000000000000000000082169050919050565b600073ffffffffffffffffffffffffffffffffffffffff82169050919050565b6000819050919050565b600061262082612627565b9050919050565b600061263282612639565b9050919050565b6000612644826125eb565b9050919050565b82818337600083830152505050565b60005b8381101561267857808201518184015260208101905061265d565b83811115612687576000848401525b50505050565b6000601f19601f8301169050919050565b6126a7816125a1565b81146126b257600080fd5b50565b6126be816125b3565b81146126c957600080fd5b50565b6126d5816125bf565b81146126e057600080fd5b50565b6126ec8161260b565b81146126f757600080fd5b5056fea265627a7a72305820b5777b3cf4f58d84dc87ab2e40f27d87adc25a52dd0060b13239967ff55459676c6578706572696d656e74616cf50037",
  "source": "pragma solidity ^0.5.8;\npragma experimental ABIEncoderV2; //to return ideatype\n\nimport \"/Users/omamah/Etherdea/Etherdea/node_modules/openzeppelin-solidity/contracts/token/ERC721/ERC721.sol\";\n\ncontract Idea is ERC721 {\n    struct idea{\n        uint id;\n        string ideaTitle;\n        string ideaType;\n        string content;\n        string category;\n        uint initialValue;\n        uint actualValue;\n        bool setForSale;\n        }\n\n    uint ideaIdCounter=0;\n    idea[] ideas;//the array that contain all of the ideas\n\n    function addIdea(string memory _ideaTitle, string memory _ideaType, string memory _content, string memory _category, uint _initialValue, bool _setForSale) public {\n        require(!_exists(ideaIdCounter),\"IDEA CONTRACT ERROR: Idea ID already exists\");\n        _mint(msg.sender, ideaIdCounter);\n        //the actualValue will be 0 at first\n        idea memory newIdea = idea(ideaIdCounter, _ideaTitle, _ideaType, _content,_category, _initialValue,0, _setForSale);\n        ideas.push(newIdea);\n        ideaIdCounter++;\n    }\n\n    // function getMsg() public returns (address){\n    //     return msg.sender;\n    // }\n\n\n\n\n    function getIdea(uint _id)public view returns( string memory title,string memory ideaType,\n        string memory content,\n        string memory category,\n        uint initialValue,\n        uint actualValue,\n        bool setForSale) {\n        for (uint i = 0; i<ideas.length; i++){\n            if(ideas[i].id == _id){\n            return (ideas[i].ideaTitle, ideas[i].ideaType, ideas[i].content, ideas[i].category, ideas[i].initialValue, ideas[i].actualValue, ideas[i].setForSale) ;\n            }\n          }\n        }\n\n    function getIdeasLength () public view returns (uint){\n        return uint(ideas.length);\n    }\n\n\n    // function increaseActualValue(uint _id) public {\n    //     ideas[_id].actualValue += uint(0.0001);\n    // }\n\n\n    // function setIdeaForSale(uint _ideaId,bool _setForsale) public{\n    //     ideas[_ideaId].setForSale = _setForsale;\n    // }\n\n    // function buyIdea (uint _ideaId) public payable returns(bool success) {\n    //     require(_exists(_ideaId), \"IDEAS CONTRACT ERROR: There is no idea with this id\");\n    //     if(msg.sender.send(ideas[_ideaId].initialValue)){\n    //         safeTransferFrom(ownerOf(_ideaId), msg.sender, _ideaId);\n    //         success = true;}\n    //     else\n    //         success = false;\n\n\n    // }\n\n  }\n\n\n\n\n\n\n\n",
  "sourcePath": "/Users/omamah/Etherdea/Etherdea/contracts/Idea.sol",
  "compiler": {
    "name": "solc",
    "version": "0.5.8+commit.23d335f2.Emscripten.clang"
  },
  "schemaVersion": "3.0.11",
  "updatedAt": "2019-07-21T20:28:39.737Z",
  "devdoc": {
    "methods": {
      "approve(address,uint256)": {
        "details": "Approves another address to transfer the given token ID The zero address indicates there is no approved address. There can only be one approved address per token at a given time. Can only be called by the token owner or an approved operator.",
        "params": {
          "to": "address to be approved for the given token ID",
          "tokenId": "uint256 ID of the token to be approved"
        }
      },
      "balanceOf(address)": {
        "details": "Gets the balance of the specified address.",
        "params": {
          "owner": "address to query the balance of"
        },
        "return": "uint256 representing the amount owned by the passed address"
      },
      "getApproved(uint256)": {
        "details": "Gets the approved address for a token ID, or zero if no address set Reverts if the token ID does not exist.",
        "params": {
          "tokenId": "uint256 ID of the token to query the approval of"
        },
        "return": "address currently approved for the given token ID"
      },
      "isApprovedForAll(address,address)": {
        "details": "Tells whether an operator is approved by a given owner.",
        "params": {
          "operator": "operator address which you want to query the approval of",
          "owner": "owner address which you want to query the approval of"
        },
        "return": "bool whether the given operator is approved by the given owner"
      },
      "ownerOf(uint256)": {
        "details": "Gets the owner of the specified token ID.",
        "params": {
          "tokenId": "uint256 ID of the token to query the owner of"
        },
        "return": "address currently marked as the owner of the given token ID"
      },
      "safeTransferFrom(address,address,uint256)": {
        "details": "Safely transfers the ownership of a given token ID to another address If the target address is a contract, it must implement `onERC721Received`, which is called upon a safe transfer, and return the magic value `bytes4(keccak256(\"onERC721Received(address,address,uint256,bytes)\"))`; otherwise, the transfer is reverted. Requires the msg.sender to be the owner, approved, or operator",
        "params": {
          "from": "current owner of the token",
          "to": "address to receive the ownership of the given token ID",
          "tokenId": "uint256 ID of the token to be transferred"
        }
      },
      "safeTransferFrom(address,address,uint256,bytes)": {
        "details": "Safely transfers the ownership of a given token ID to another address If the target address is a contract, it must implement `onERC721Received`, which is called upon a safe transfer, and return the magic value `bytes4(keccak256(\"onERC721Received(address,address,uint256,bytes)\"))`; otherwise, the transfer is reverted. Requires the msg.sender to be the owner, approved, or operator",
        "params": {
          "_data": "bytes data to send along with a safe transfer check",
          "from": "current owner of the token",
          "to": "address to receive the ownership of the given token ID",
          "tokenId": "uint256 ID of the token to be transferred"
        }
      },
      "setApprovalForAll(address,bool)": {
        "details": "Sets or unsets the approval of a given operator An operator is allowed to transfer all tokens of the sender on their behalf.",
        "params": {
          "approved": "representing the status of the approval to be set",
          "to": "operator address to set the approval"
        }
      },
      "supportsInterface(bytes4)": {
        "details": "See `IERC165.supportsInterface`.     * Time complexity O(1), guaranteed to always use less than 30 000 gas."
      },
      "transferFrom(address,address,uint256)": {
        "details": "Transfers the ownership of a given token ID to another address. Usage of this method is discouraged, use `safeTransferFrom` whenever possible. Requires the msg.sender to be the owner, approved, or operator.",
        "params": {
          "from": "current owner of the token",
          "to": "address to receive the ownership of the given token ID",
          "tokenId": "uint256 ID of the token to be transferred"
        }
      }
    }
  },
  "userdoc": {
    "methods": {}
  }
}